:100000000C942A000C9447000C9447000C94470071
:100010000C9447000C9447000C9447000C94540037
:100020000C9447000C9447000C9447000C94470034
:100030000C9447000C94EC000C9447000C9447007F
:100040000C9447000C9447000C9447000C94470014
:100050000C94470011241FBECFE5D8E0DEBFCDBF12
:1000600013E0A0E6B0E0EAE3F9E002C005900D92EB
:10007000AE36B107D9F723E0AEE6B3E001C01D927A
:10008000AA39B207E1F70E944F020C949B040C942A
:10009000000041E063E080E00E94D50208950E94E4
:1000A0007F030E944900FFCF1F920F920FB60F925D
:1000B00011242F933F934F935F936F937F938F936D
:1000C0009F93AF93BF93EF93FF9380916E03811142
:1000D00006C041E067E083E00E94D50207C081309E
:1000E00029F440E067E083E00E94D50280916E032E
:1000F000883220F48F5F80936E0302C010926E03EB
:10010000FF91EF91BF91AF919F918F917F916F91EF
:100110005F914F913F912F910F900FBE0F901F90C5
:1001200018950E948303089541E062E082E00E94F6
:10013000650241E067E082E00E94650241E063E021
:1001400083E00E94650241E064E083E00E94650272
:1001500041E065E083E00E94650241E060E080E00C
:100160000E946502089540E062E082E00E94D502AC
:10017000089540E067E082E00E94D502089540E0E3
:1001800063E083E00E94D502089540E064E083E0EC
:100190000E94D502089540E065E083E00E94D50208
:1001A000089540E060E080E00E94D50208950E943A
:1001B00094000E94B9000E94BF000E94C5000E94E6
:1001C000CB000E94B3000E94D1000E9491000E94C7
:1001D00093030E947B0308951F920F920FB60F9214
:1001E00011242F933F934F935F936F937F938F933C
:1001F0009F93AF93BF93EF93FF9382E993E00E94A5
:10020000D30381E080939103FF91EF91BF91AF9170
:100210009F918F917F916F915F914F913F912F911E
:100220000F900FBE0F901F9018959C0190E005C095
:10023000F901E90FF11D10829F5F9923C9F3089519
:1002400080919103813009F029C180917100833040
:1002500059F128F4813051F08230B1F008958430A2
:1002600009F46FC0853009F48EC008950E94F00330
:1002700082E993E00E941501109291038091710030
:100280008F5F80937100089562E973E089E893E0DD
:100290000E949404109291030E94F50380917100D2
:1002A0008F5F80937100089562E973E081E893E0C5
:1002B0000E9494041092910361E873E089E690E053
:1002C0000E948B04892BA9F482E790E00E94BC0372
:1002D00081E690E00E94BC0384EA92E00E94BC03A5
:1002E0000E94FF0310926000809171008F5F8093E5
:1002F000710080916000813009F0D0C0809180034E
:100300008F5F80938003833030F081E890E00E941B
:10031000BC030E944F0081EA90E00E94BC038091E0
:100320008003805D0E94B80383EA92E00E94BC03D0
:100330008091710082508093710081E080939103DD
:10034000089562E973E088E793E00E9494041092B4
:100350009103E8E7F3E080818053809377039181F4
:10036000992349F00E94FA030E94FF0388E793E073
:100370000E94150108950E947404809171008F5F9E
:1003800080937100089562E973E08FE693E00E9424
:1003900094041092910380916F0390ED980F8091D7
:1003A0007703863049F420918903233929F08CEBB7
:1003B00090E00E94BC030895853011F0873018F05A
:1003C0000E94FA03089520917003222359F00E949D
:1003D000FA03809177030E9474048FE693E00E94F1
:1003E000150108958130E9F5963018F00E94FA035E
:1003F0000895923091F028F4992339F1913039F031
:1004000008959430B1F078F09530C9F0089542E045
:1004100062E082E00E94D502089542E067E082E057
:100420000E94D502089542E063E083E00E94D50275
:10043000089542E065E083E00E94D502089542E01D
:1004400064E083E00E94D502089586ED90E00E946A
:10045000BC030E94FF038091710081508093710062
:100460000895823029F49430C8F00E94FA03089568
:10047000833071F480918903833929F08CEB90E00B
:100480000E94BC030895933048F00E94FA03089537
:10049000843021F4953010F00E94FA0308950E94F0
:1004A0008F030E94D70041E067E082E00E94D502FE
:1004B00041E063E083E00E94D50241E062E082E037
:1004C0000E94D5020E942001FDCF4130A1F581306C
:1004D00089F028F08230C9F0833011F108952AB3F1
:1004E00081E090E002C0880F991F6A95E2F7822BA5
:1004F0008ABB089527B381E090E002C0880F991F5E
:100500006A95E2F7822B87BB089524B381E090E0DF
:1005100002C0880F991F6A95E2F7822B84BB089569
:1005200021B381E090E002C0880F991F6A95E2F73D
:10053000822B81BB0895411137C0813091F028F0A2
:100540008230D9F0833029F108952AB381E090E018
:1005500002C0880F991F6A95E2F7809582238ABBB3
:10056000089527B381E090E002C0880F991F6A9533
:10057000E2F78095822387BB089524B381E090E061
:1005800002C0880F991F6A95E2F78095822384BB89
:10059000089521B381E090E002C0880F991F6A9509
:1005A000E2F78095822381BB08954130A1F5813027
:1005B00089F028F08230C9F0833011F108952BB30F
:1005C00081E090E002C0880F991F6A95E2F7822BC4
:1005D0008BBB089528B381E090E002C0880F991F7B
:1005E0006A95E2F7822B88BB089525B381E090E0FD
:1005F00002C0880F991F6A95E2F7822B85BB089588
:1006000022B381E090E002C0880F991F6A95E2F75B
:10061000822B82BB0895411138C0813091F028F0BF
:100620008230D9F0833029F108952BB381E090E036
:1006300002C0880F991F6A95E2F7809582238BBBD1
:10064000089528B381E090E002C0880F991F6A9551
:10065000E2F78095822388BB089525B381E090E07E
:1006600002C0880F991F6A95E2F78095822385BBA7
:10067000089522B381E090E002C0880F991F6A9527
:10068000E2F78095822382BB0895423099F581304C
:1006900089F028F08230C9F0833011F108952BB32E
:1006A00081E090E002C0880F991F6A95E2F78227E7
:1006B0008BBB089528B381E090E002C0880F991F9A
:1006C0006A95E2F7822788BB089525B381E090E020
:1006D00002C0880F991F6A95E2F7822785BB0895AB
:1006E00022B381E090E002C0880F991F6A95E2F77B
:1006F000822782BB08958FB780688FBF08958FB718
:100700008F778FBF08958AE080B981B1816081B908
:1007100081B18D7F81B986B7846086BF08958AB123
:1007200080688AB908958AB18B7F8AB980B5846060
:1007300080BD80B5826080BD80B58F7B80BD80B577
:10074000806880BD80B58F7D80BD80B58F7E80BD87
:1007500080B5877F80BD10BC87E689B98AB180618A
:100760008AB98AB188608AB98AB180688AB90895DD
:100770005D9BFECF8CB908950F931F93CF938C018F
:10078000C0E003C00E94B803CF5FF801EC0FF11D79
:1007900080818111F7CFCF911F910F9108955F9BB9
:1007A000FECF8CB10895EF92FF921F93CF93DF930A
:1007B0007C0110E0E701C10FD11D0E94CF038883A7
:1007C0008D3009F4188288818A3011F4188202C0B1
:1007D0001F5FF0CFDF91CF911F91FF90EF900895B1
:1007E00087EE90E00E94BC0308958DEF90E00E9498
:1007F000BC03089585E191E00E94BC03089586E35F
:1008000091E00E94BC0387E491E00E94BC038AE56A
:1008100091E00E94BC038BE691E00E94BC038EE74E
:1008200091E00E94BC0383E991E00E94BC0389EA45
:1008300091E00E94BC038FEB91E00E94BC0381ED2C
:1008400091E00E94BC0388EE91E00E94BC030895F1
:100850008CEF91E00E94BC038FE092E00E94BC0309
:1008600082E292E00E94BC0385E392E00E94BC0316
:1008700088E492E00E94BC038BE592E00E94BC03F6
:10088000089586E692E00E94BC0384E792E00E940D
:10089000BC038DE892E00E94BC038BE592E00E94CD
:1008A000BC03089586EA92E00E94BC038BEB92E0C1
:1008B0000E94BC038BE592E00E94BC03089581ED89
:1008C00092E00E94BC0381EE92E00E94BC0383EFA1
:1008D00092E00E94BC0384E093E00E94BC038BE59D
:1008E00092E00E94BC030895823061F018F48130D8
:1008F00031F00895833049F0843051F008950E941A
:10090000280408950E94410408950E945204089505
:100910000E945F040895FB01DC018D910190801914
:100920000110D9F3990B0895FB01DC0101900D92A0
:0A0930000020E1F70895F894FFCFCE
:10093A00014B617265656D0000313233340000008D
:10094A00000157656C636F6D65204261636B2120FE
:10095A00004C6F67696E204661696C65642C200AD9
:10096A0053797374656D204C6F636B656421200A3B
:10097A00004C6F67696E204661696C65642C20546F
:10098A00727920616761696E21200A004175746875
:10099A002044656E6965642C2041736B2041646D47
:1009AA00696E21200A00476F696E67204261636B96
:1009BA00210A00256C7500506C6561736520456ECF
:1009CA00746572205573657249443A0A00506C6521
:1009DA0061736520456E7465722050617373776F19
:1009EA0072643A0A00496E76616C696420696E70B5
:1009FA00757420506C656173652074727920416743
:100A0A0061696E200A0043686F6F7365204F7074C6
:100A1A00696F6E3A200A0028312920436F6E74727A
:100A2A006F6C204C656473200A0028322920436FBA
:100A3A006E74726F6C204143200A002833292043C8
:100A4A006F6E74726F6C20446F6F72200A002834C4
:100A5A002920436F6E74726F6C2044696D6D6572E4
:100A6A00200A002835292053686F7720557365724C
:100A7A0073206C697374200A002836292043726532
:100A8A00617465204E65772055736572200A0028C7
:100A9A0037292044656C6574652055736572200A90
:100AAA00002838292044656C65746520416C6C20E7
:100ABA005573657273200A002839292046616374C8
:100ACA006F7279205265736574200A0028312920D3
:100ADA00546F67676C65204C65642031200A0028D2
:100AEA00322920546F67676C65204C656420322078
:100AFA000A0028332920546F67676C65204C6564A7
:100B0A002033200A0028342920546F67676C652037
:100B1A004C65642034200A0028352920546F676701
:100B2A006C65204C65642035200A00283029204253
:100B3A0061636B200A0028312920414320417574E2
:100B4A006F200A00283229204143204D616E7561C9
:100B5A006C205475726E204F6666200A002833296D
:100B6A00204143204D616E75616C205475726E2070
:100B7A004F6E20200A00283129204F70656E2044CC
:100B8A006F6F72204C6F636B200A00283229204352
:100B9A006C6F736520446F6F72204C6F636B200A11
:100BAA00002831292044696D6D6572205570200A2C
:100BBA00002832292044696D6D657220446F776E72
:100BCA00200A002833292044696D6D6572204F661A
:100BDA0066200A002834292044696D6D6572204F09
:100BEA006E200A00417574682044656E6965642C3C
:100BFA0020506C656173652061736B2041646D6977
:100C0A006E21200A005573657249443A2000205328
:100C1A0075636365737366756C6C790A0044656CF9
:100C2A006574656420416C6C20557365727320533A
:0E0C3A0075636365737366756C6C79200A00D0
:00000001FF
