S0160000536D6172745F486F6D655F4436362E7372656310
S11300000C942A000C9447000C9447000C9447006D
S11300100C9447000C9447000C9447000C94800106
S11300200C9447000C9447000C9447000C94B300C4
S11300300C9447000C9462030C9447000C94470002
S11300400C9447000C9447000C9447000C94470010
S11300500C94470011241FBECFE5D8E0DEBFCDBF0E
S113006014E0A0E6B0E0E8E3FFE002C005900D92E2
S1130070A23EB107D9F725E0A2EEB4E001C01D927B
S1130080A331B207E1F70E94BF040C949A070C94C1
S1130090000041E062E080E00E94F904089541E03C
S11300A062E080E00E946905089540E062E080E03B
S11300B00E94690508958230C9F0833071F181305E
S11300C009F043C08091E304882319F0813049F09A
S11300D0089581E08093E30481E890E00E94910612
S11300E0089582E990E00E94910608958091E204C7
S11300F0882319F0813031F0089586EA90E00E9457
S1130100910608950E9455001092E2041092E304AF
S11301108CEB90E00E94910608958091E20488237C
S113012019F0813069F008950E944F0081E08093B6
S1130130E2041092E30483ED90E00E949106089596
S113014089EE90E00E94910608950E94CF060895DA
S113015041E063E080E00E94690508950E9413066F
S11301600E94A800FFCF1F920F920FB60F92112486
S11301702F933F934F935F936F937F938F939F93AB
S1130180AF93BF93EF93FF939091E4048091E504C0
S1130190981730F441E063E083E00E94690507C0EA
S11301A0981728F040E063E083E00E94690580919D
S11301B0E4048F5F8093E4048E3F10F01092E40413
S11301C0FF91EF91BF91AF919F918F917F916F912B
S11301D05F914F913F912F910F900FBE0F901F9001
S11301E0189541E063E083E00E94F9040E94170639
S11301F00E942D0608958230E9F018F4813031F020
S11302000895833051F18430D1F108958091E5044B
S11302108A3F29F48FEF90E00E94910608958A3F67
S113022008F03FC08E5C8093E5048CE091E00E946E
S1130230910608958091E504811105C08EE191E055
S11302400E9491060895882361F182538093E50406
S11302508BE291E00E94910608958091E50481115A
S113026005C08DE391E00E94910608958823C9F0AA
S11302701092E5048AE491E00E9491060895809129
S1130280E504811108C08E5C8093E5048CE591E05F
S11302900E9491060895882321F08DE691E00E9442
S11302A0910608951092E50408958130A9F08230F2
S11302B031F58091E704882319F0813031F00895F5
S11302C089E791E00E94910608951092E70481E97C
S11302D091E00E94910608958091E704882319F023
S11302E0813049F0089581E08093E70486EA91E043
S11302F00E94910608958BEB91E00E949106089567
S11303001F920F920FB60F9211242F933F934F9386
S11303105F936F937F938F939F93AF93BF93EF9369
S1130320FF938091E604811106C041E067E083E019
S11303300E94690517C0813051F48091E70481114E
S113034011C040E067E083E00E9469050BC085307E
S113035049F48091E704813029F440E067E083E0C8
S11303600E9469058091E604883220F48F5F8093AF
S1130370E60402C01092E604FF91EF91BF91AF91A1
S11303809F918F917F916F915F914F913F912F91A9
S11303900F900FBE0F901F90189541E067E083E027
S11303A00E94F90440E067E083E00E9469058EB58D
S11303B08A608EBD83E08BBD88EE8ABD89B780617B
S11303C089BF0E940F0608950E94310608950F9375
S11303D01F93CF93DF938C01177012FBCC27C0F9C6
S11303E0CC0FCC0FCC0F11FB882780F9880F880F16
S11303F0C82B812F8170880FC82BC06AD1E0DC0F15
S11304000E944B0688E00E943D06813031F58C2F16
S11304100E945D0688E10E943D06813001F5802F2F
S11304200E945D0688E20E943D068130D1F40E945C
S11304304B0680E10E943D068130A9F48D2F0E9475
S11304405D0680E40E943D06813079F480E00E94DC
S11304505106C82F0E94480609C0C0E007C0C0E08A
S113046005C0C0E003C0C0E001C0C0E08FE19EE46D
S11304700197F1F700C000008C2FDF91CF911F91FD
S11304800F9108951F93CF93DF93D82F162F92FBCC
S1130490882780F9282F220F220F220F91FB88270B
S11304A080F9880F880F822B9170990F982BC92F90
S11304B0C06A0E944B0688E00E943D06813001F527
S11304C08C2F0E945D0688E10E943D068130C1F4B4
S11304D08D2F0E945D0688E20E943D06882381F0EC
S11304E0812F0E945D0688E20E943D06882341F028
S11304F00E9448068FE19EE40197F1F700C00000D6
S1130500DF91CF911F910895EF92FF920F931F9364
S1130510CF938C017B01C0E005C0800F911F0E9426
S11305204202CF5F8C2F90E0F701E80FF91F608142
S11305306111F3CF800F911F0E944202CF911F914E
S11305400F91FF90EF900895CF92DF92EF92FF9278
S11305501F93CF93DF936C017B0110E006C08C0DD9
S11305609D1D0E94E70188831F5F812F90E0E701B2
S1130570C80FD91F28812111F2CF1882DF91CF91A2
S11305801F91FF90EF90DF90CF900895833631F064
S113059024E1829FC00111240A9602C08AE090E0FF
S11305A0413019F0423029F0089501960E94A402C6
S11305B008950A960E94A4020895833631F024E136
S11305C0829FC00111240A9602C08AE090E00E9432
S11305D0E701089541E062E082E00E94F90441E00D
S11305E067E082E00E94F90441E063E083E00E9456
S11305F0F90441E065E083E00E94F90441E064E02D
S113060083E00E94F90441E060E080E00E94F90484
S1130610089540E062E082E00E946905089540E0A8
S113062067E082E00E946905089540E063E083E0AA
S11306300E946905089540E065E083E00E94690531
S1130640089540E064E083E00E946905089542E073
S113065062E082E00E946905089542E067E082E07A
S11306600E946905089542E063E083E00E94690501
S1130670089542E065E083E00E946905089542E040
S113068064E083E00E94690508950E94EA020E94E2
S11306900F030E9415030E941B030E9421030E9462
S11306A009030E9449000E94CD010E94F1000E94AA
S11306B052010E94E4010E9468060E9464060E949E
S11306C00F0608951F920F920FB60F9211242F93C5
S11306D03F934F935F936F937F938F939F93AF93C6
S11306E0BF93EF93FF938BE095E00E94A80681E00F
S11306F080930A05FF91EF91BF91AF919F918F91E4
S11307007F916F915F914F913F912F910F900FBE09
S11307100F901F9018959C0190E005C0F901E90F16
S1130720F11D10829F5F9923C9F3089583ED91E031
S11307300E9491060E94D40680917000815080939B
S11307407000089510920A058BE095E00E948B03D7
S1130750809170008F5F809370000895CF93C82FAD
S113076010920A058BE095E00E948B03C093700001
S1130770CF91089580EE91E00E9491068091090541
S1130780805D0E948D0687E194E00E9491060895A1
S1130790CF93809170008330E9F028F4813051F0D8
S11307A0823069F0EAC0843009F45BC0853009F412
S11307B073C0E3C00E94C5060E94A203DEC06BE0C2
S11307C075E081E095E00E948B070E94CA060E94B2
S11307D0A203D3C06BE075E089EF94E00E948B071D
S11307E081E095E00E946407C82F0E94DD028823FF
S11307F061F042E068E670E08C2F0E94C60241E09E
S113080060E670E08C2F0E94C60269EF74E080E617
S113081090E00E948207892B89F48AEF91E00E947C
S1130820910688E690E00E94910688E194E00E9497
S113083091060E94D4060E94A2039FC080910905DC
S11308408F5F80930905833030F089E092E00E9445
S113085091060E94AE000E94BA0381E00E94AE039A
S11308608CC06BE075E081EF94E00E948B0781EF10
S113087094E00E9464078093F0048A3028F40E9474
S11308804D070E94A20379C00E94CF060E94D4069D
S113089084E00E94AE0371C06BE075E088EE94E0E2
S11308A00E948B0710920A058091E804805390916E
S11308B0F004963049F420910105233929F089E2A6
S11308C092E00E94910659C0953010F4863018F0D9
S11308D00E94CF0652C02091E904222359F00E94BD
S11308E0CF068091F0040E944D0788EE94E00E94A8
S11308F08B0343C0923049F118F4913031F03DC07C
S1130900933059F1943091F138C0823079F028F461
S11309108823C1F0813039F030C0843069F048F068
S1130920853069F02AC00E94270327C00E942D0346
S113093024C00E94330321C00E9439031EC00E94B8
S11309403F031BC00E94960318C0811103C00E947C
S1130950960313C00E945B0010C0811103C00E9463
S113096096030BC090E00E94550107C0811103C09B
S11309700E94960302C00E94FB00CF910895CF937A
S1130980DF93CDB7DEB760970FB6F894DEBF0FBE26
S1130990CDBF0E94450388E0E1E7F0E0DE01119657
S11309A001900D928A95E1F786E0E9E7F0E0DE0137
S11309B0199601900D928A95E1F7188A1F8663E6CD
S11309C08AE090E00E944202BE01675F7F4F8BE0A5
S11309D090E00E948402BE016F5F7F4F84E190E04B
S11309E00E94840280910A058130E1F70E94C803C5
S11309F0F9CF4130A1F5813089F028F08230C9F077
S1130A00833011F108952AB381E090E002C0880F89
S1130A10991F6A95E2F7822B8ABB089527B381E078
S1130A2090E002C0880F991F6A95E2F7822B87BB7A
S1130A30089524B381E090E002C0880F991F6A955D
S1130A40E2F7822B84BB089521B381E090E002C0D9
S1130A50880F991F6A95E2F7822B81BB0895411193
S1130A6037C0813091F028F08230D9F0833029F1F9
S1130A7008952AB381E090E002C0880F991F6A9517
S1130A80E2F7809582238ABB089527B381E090E042
S1130A9002C0880F991F6A95E2F78095822387BB6D
S1130AA0089524B381E090E002C0880F991F6A95ED
S1130AB0E2F78095822384BB089521B381E090E01E
S1130AC002C0880F991F6A95E2F78095822381BB43
S1130AD008954130A1F5813089F028F08230C9F0C1
S1130AE0833011F108952BB381E090E002C0880FA8
S1130AF0991F6A95E2F7822B8BBB089528B381E096
S1130B0090E002C0880F991F6A95E2F7822B88BB98
S1130B10089525B381E090E002C0880F991F6A957B
S1130B20E2F7822B85BB089522B381E090E002C0F6
S1130B30880F991F6A95E2F7822B82BB08954111B1
S1130B4038C0813091F028F08230D9F0833029F117
S1130B5008952BB381E090E002C0880F991F6A9535
S1130B60E2F7809582238BBB089528B381E090E05F
S1130B7002C0880F991F6A95E2F78095822388BB8B
S1130B80089525B381E090E002C0880F991F6A950B
S1130B90E2F78095822385BB089522B381E090E03B
S1130BA002C0880F991F6A95E2F78095822382BB61
S1130BB00895423099F5813089F028F08230C9F0E7
S1130BC0833011F108952BB381E090E002C0880FC7
S1130BD0991F6A95E2F782278BBB089528B381E0B9
S1130BE090E002C0880F991F6A95E2F7822788BBBC
S1130BF0089525B381E090E002C0880F991F6A959B
S1130C00E2F7822785BB089522B381E090E002C019
S1130C10880F991F6A95E2F7822782BB08958FB7E0
S1130C2080688FBF08958FB78F778FBF089583B77C
S1130C308F7B83BF83B7877F83BF83B78B7F83BF5C
S1130C4083B78D7F83BF83B7816083BF83B78F7D75
S1130C5083BF83B78F7E83BF089589B7816089BFBF
S1130C6008958AE080B981B1816081B981B18D7FB5
S1130C7081B986B7846086BF089521B190E0287F4A
S1130C8030E08217930711F481E0089580E008951D
S1130C9084E986BF089584EA86BF06B607FEFDCFC1
S1130CA00895813019F486B7806486BF84E886BFCE
S1130CB006B607FEFDCF83B1089583B984E886BFE5
S1130CC006B607FEFDCF08958AB180688AB90895F3
S1130CD08AB18B7F8AB980B5846080BD80B582601B
S1130CE080BD80B58F7B80BD80B5806880BD80B5B8
S1130CF08F7D80BD80B58F7E80BD80B5877F80BDB0
S1130D0010BC87E689B98AB180618AB98AB18860E2
S1130D108AB98AB180688AB908955D9BFECF8CB97F
S1130D2008950F931F93CF938C01C0E003C00E94DA
S1130D308D06CF5FF801EC0FF11D80818111F7CF93
S1130D40CF911F910F9108955F9BFECF8CB10895B1
S1130D50EF92FF921F93CF93DF937C0110E0E701A2
S1130D60C10FD11D0E94A40688838D3009F4188216
S1130D7088818A3011F4188202C01F5FF0CFDF919E
S1130D80CF911F91FF90EF90089587E492E00E9425
S1130D909106089583E692E00E94910608958BE7F8
S1130DA092E00E94910608958CE992E00E949106D7
S1130DB08DEA92E00E94910680EC92E00E949106F6
S1130DC081ED92E00E94910684EE92E00E949106E9
S1130DD089EF92E00E9491068FE093E00E949106D1
S1130DE085E293E00E94910687E393E00E949106D6
S1130DF08EE493E00E94910682E693E00E949106BD
S1130E00089580E793E00E94910683E893E00E94AE
S1130E10910686E993E00E94910689EA93E00E9494
S1130E2091068CEB93E00E9491068FEC93E00E9474
S1130E30910608958AED93E00E94910688EE93E06E
S1130E400E94910681E094E00E9491068FEC93E069
S1130E500E94910608958AE194E00E9491068FE22F
S1130E6094E00E9491068FEC93E00E94910608950D
S1130E7085E494E00E94910685E594E00E94910641
S1130E8087E694E00E94910688E794E00E94910628
S1130E908FEC93E00E9491060895823061F018F47B
S1130EA0813031F00895833049F0843051F0089551
S1130EB00E94010708950E941A0708950E942B07B3
S1130EC008950E9438070895FC0188279927E8941B
S1130ED021912032E9F3293010F02E30C8F32B325F
S1130EE041F02D3239F4689404C00E949207820FB5
S1130EF0911D219120532A30C0F31EF490958195C1
S1130F009F4F0895FB01DC018D9101908019011020
S1130F10D9F3990B0895FB01DC0101900D92002097
S1130F20E1F708957AE0979F902D879F802D910D8A
S10B0F3011240895F894FFCF89
S1130F38706173730000000077726F6E67000000C1
S1130F48014B617265656D00003132333400000075
S1130F58004143204175746F20537563636573734F
S1130F682100414320697320416C726561647920D2
S1130F784175746F2100414320697320416C726587
S1130F8861647920436C6F73656421004143205484
S1130F9875726E6564204F66662053756363657366
S1130FA87321004143205475726E6564204F6E208E
S1130FB8537563636573732100414320416C726503
S1130FC8616479205475726E6564204F4E21004126
S1130FD86C7265616479204D4158210044696D6DD6
S1130FE8657220496E637265617365642100416CA2
S1130FF87265616479204D494E210044696D6D65BF
S113100872204465637265617365642100416C7282
S113101865616479204F464621005475726E204FED
S11310286666205375636365737321005475726E25
S1131038204F6E20537563636573732100416C728E
S113104865616479204F4E2100446F6F7220697383
S113105820416C726561647920436C6F7365642107
S113106800446F6F7220436C6F736564205375631B
S1131078636573732100446F6F72204F70656E65EA
S11310886420537563636573732100446F6F722022
S1131098697320416C7265616479204F70656E656F
S11310A8642100476F696E67204261636B210A00FF
S11310B84C6F67696E204661696C65642C205472B4
S11310C87920616761696E21200057656C636F6DD3
S11310D865204261636B2120004C6F67696E20466E
S11310E861696C65642C200A53797374656D204CAE
S11310F86F636B656421200A004175746820446538
S11311086E6965642C2041736B2041646D696E219E
S1131118200A00256C7500506C6561736520456E66
S1131128746572205573657249443A28317E393999
S1131138290A00506C6561736520456E74657220D8
S113114850617373776F72643A0A00496E76616C02
S1131158696420696E70757420506C6561736520CC
S113116874727920416761696E200A0043686F6F61
S11311787365204F7074696F6E3A200A002831290C
S113118820436F6E74726F6C204C656473200A0080
S113119828322920436F6E74726F6C204143200AF1
S11311A80028332920436F6E74726F6C20446F6F6C
S11311B872200A0028342920436F6E74726F6C20E1
S11311C844696D6D6572200A002835292053686FBB
S11311D877205573657273206C697374200A00282C
S11311E8362920437265617465204E6577205573EE
S11311F86572200A002837292044656C65746520C7
S113120855736572200A002838292044656C657472
S11312186520416C6C205573657273200A00283967
S11312282920466163746F7279205265736574204E
S11312380A00283029204C6F67204F7574200A0053
S113124828312920546F67676C65204C6564203108
S1131258200A0028322920546F67676C65204C6582
S1131268642032200A0028332920546F67676C658C
S1131278204C65642033200A0028342920546F67E1
S1131288676C65204C65642034200A0028352920C1
S1131298546F67676C65204C65642035200A002804
S11312A83029204261636B200A00283129204143F8
S11312B8204175746F200A00283229204143204DAB
S11312C8616E75616C205475726E204F6666200AD3
S11312D800283329204143204D616E75616C2054E8
S11312E875726E204F6E20200A00283129204F7015
S11312F8656E20446F6F72204C6F636B200A002860
S1131308322920436C6F736520446F6F72204C6FD1
S1131318636B200A002831292044696D6D657220A9
S11313285570200A002832292044696D6D657220A1
S1131338446F776E200A002833292044696D6D654F
S113134872204F6666200A002834292044696D6D8E
S11313586572204F6E200A00417574682044656EDA
S11313686965642C20506C656173652061736B201A
S113137841646D696E21200A005573657249443AC7
S11313882000205375636365737366756C6C790A02
S11313980044656C6574656420416C6C2055736504
S11313A87273205375636365737366756C6C792007
S10513B80A0025
S9030000FC
