S0160000536D6172745F486F6D655F4436362E7372656310
S11300000C943E000C945B000C945B000C945B001D
S11300100C945B000C945B000C945B000C945B00F0
S11300200C945B000C945B000C945B000C945B00E0
S11300300C945B000C945D000C945B000C945B00CE
S11300400C945B000C945B000C945B000C945B00C0
S11300500C945B000C945B000C945B000C945B00B0
S11300600C945B000C945B000C945B000C945B00A0
S11300700C945B000C945B000C945B0011241FBE79
S1130080CFEFD8E0DEBFCDBF11E0A0E0B1E0EAE100
S1130090F2E002C005900D92A030B107D9F721E03B
S11300A0A0E0B1E001C01D92A130B207E1F70E94C7
S11300B09A000C940B010C9400001F920F920FB63F
S11300C00F9211242F933F934F935F936F937F93DA
S11300D08F939F93AF93BF93EF93FF93809100010E
S11300E0811106C08BB141E067E00E949B0007C00C
S11300F0813029F48BB140E067E00E949B0080913D
S11301000001883220F48F5F8093000102C01092B6
S11301100001FF91EF91BF91AF919F918F917F91DA
S11301206F915F914F913F912F910F900FBE0F9060
S11301301F901895FFCF4130A1F5813089F028F048
S11301408230C9F0833011F108952BB381E090E03F
S113015002C0880F991F6A95E2F7822B8BBB089522
S113016028B381E090E002C0880F991F6A95E2F7F6
S1130170822B88BB089525B381E090E002C0880FEC
S1130180991F6A95E2F7822B85BB089522B381E01B
S113019090E002C0880F991F6A95E2F7822B82BB18
S11301A00895411137C0813091F028F08230D9F0A0
S11301B0833029F108952BB381E090E002C0880FC9
S11301C0991F6A95E2F7809582238BBB089528B323
S11301D081E090E002C0880F991F6A95E2F780954C
S11301E0822388BB089525B381E090E002C0880F84
S11301F0991F6A95E2F78095822385BB089522B3FF
S113020081E090E002C0880F991F6A95E2F780951B
S10D0210822382BB0895F894FFCF07
S9030000FC
