:100000000C9447000C9464000C9464000C946400FD
:100010000C9464000C9464000C9464000C948F00A5
:100020000C9464000C9464000C9464000C943305EC
:100030000C9464000C9466000C9464000C946400AE
:100040000C9464000C9464000C9464000C946400A0
:100050000C946400740279027E0283028C02950281
:100060009E02A702B002B902D002DF02E80220031A
:1000700029036103AB03BD03DC03FD031C04720E03
:10008000750E780E7B0E7E0E810E840E870E112467
:100090001FBECFE5D8E0DEBFCDBF16E0A0E6B0E0E2
:1000A000E6E1FEE102C005900D92AA34B107D9F74E
:1000B00026E0AAE4B6E001C01D92A83BB207E1F732
:1000C0000E94660B0C94090F0C9400001F920F9273
:1000D0000FB60F9211242F933F934F935F936F931B
:1000E0007F938F939F93AF93BF93EF93FF9387E893
:1000F00096E00E947D0D81E080935406FF91EF9180
:10010000BF91AF919F918F917F916F915F914F912F
:100110003F912F910F900FBE0F901F9018951F9237
:100120000F920FB60F9211242F933F934F935F932B
:100130006F937F938F939F93AF93BF93EF93FF93AF
:1001400080914A06813089F028F08530E9F08832C4
:1001500051F12CC041E067E083E00E94100C8091D7
:100160004A068F5F80934A0624C08091570681110A
:1001700005C040E067E083E00E94100C80914A06D1
:100180008F5F80934A0615C080915706813029F40D
:1001900040E067E083E00E94100C80914A068F5F88
:1001A00080934A0606C010924A0603C08F5F809370
:1001B0004A06FF91EF91BF91AF919F918F917F91EF
:1001C0006F915F914F913F912F910F900FBE0F90C4
:1001D0001F9018950E94DA0A0E94FF0A0E94050BE0
:1001E0000E940B0B0E94110B0E94F90A0E947A0BCD
:1001F0000E9471050E94D2050E9469070E94590958
:100200000E94D7040E9400060E9417060E943D0D1E
:100210000E94390D0E94E40C089581E00E948D0B2C
:1002200022E3829FC0011124909360000895809181
:100230005406813009F047C1109254068091620043
:10024000833029F128F4813061F0823091F00895F3
:10025000853009F493C008F469C0863009F401C1FF
:1002600008950E949A0D809162008F5F80936200D2
:10027000089567E876E080EA96E00E94C50E0E9445
:100280009F0D809162008F5F80936200089567E800
:1002900076E083E696E00E94C50E80EA96E00E9432
:1002A0009E0E80937D060E941807882371F042E01D
:1002B0006EE776E080917D060E94010741E06AE5E5
:1002C00076E080917D060E94010763E676E08AE58C
:1002D00096E00E94BC0E892BA1F487E690E00E9474
:1002E000660D8EE796E00E94660D89E495E00E9417
:1002F000660D0E94A90D809162008F5F809362005D
:100300000895809155068F5F809355069091660001
:10031000891730F080E192E00E94660D0E942E0560
:100320000E948A0E81E080936200089587E896E03B
:100330000E949E0E80936B069AEF980F933010F0F8
:10034000833049F490917D06933629F086E790E05A
:100350000E94660D08950E94680E80916B0685309C
:1003600031F0809162008F5F809362000895883041
:1003700009F0A9C082E080936200089587E896E0C2
:100380000E949E0E80938F0690916B062AEF290F94
:10039000223098F0893038F00E94A40D80916B06CD
:1003A0000E94680E0895811108C00E94A90D8091D5
:1003B000620081508093620008959330F1F028F438
:1003C000913059F0923089F00895963039F1973094
:1003D00099F1943009F077C019C0863018F40E9462
:1003E000350B08950E94A40D0895843018F40E94DE
:1003F000EE0408950E94A40D0895833020F490E047
:100400000E94D50508950E94A40D0895833018F424
:100410000E947B0508950E94A40D089567E876E088
:1004200080E996E00E94C50E0E945C0E80916200F9
:100430008F5F8093620008950E941807882349F017
:1004400080918F060E9425078AE990E00E94660D40
:1004500004C084EB90E00E94660D81E0809362000E
:10046000089567E876E088EA96E00E94C50E0E944B
:100470002E0780938606882331F048EA56E060E92B
:1004800076E00E94470789EC90E00E94660D87EEB7
:1004900090E00E94660D80918606805D0E94620D4C
:1004A00089E495E00E94660D85EF90E00E94660D5C
:1004B00080E996E00E94660D89E495E00E94660D51
:1004C00081E0809362000895CF93C82F0E94DB09DA
:1004D0008C2F90E0FC013197EA30F10508F051C013
:1004E000E65DFF4F0C94980E89E091E00E94C10AEE
:1004F00048C08AE191E00E94C10A43C08BE291E0CA
:100500000E94C10A3EC08CE391E00E94C10A8DE4C2
:1005100091E00E94C10A35C08EE591E00E94C10AB7
:100520008DE491E00E94C10A2CC08FE691E00E9408
:10053000C10A80E891E00E94C10A23C081E991E0EC
:100540000E94C10A82EA91E00E94C10A1AC083EBAC
:1005500091E00E94C10A84EC91E00E94C10A11C09E
:1005600085ED91E00E94C10A86EE91E00E94C10AE9
:1005700008C08CE391E00E94C10A87EF91E00E94DD
:10058000C10ACF91089520915306822F90E08B30BD
:10059000910508F07FC1FC01EC5CFF4F0C94980EB4
:1005A0000E94BA0780935206882309F473C11092FF
:1005B0005206809153068F5F80935306089581E021
:1005C0000E946402809153068F5F809353060895C2
:1005D0000E94BA0780935206882309F45BC190ED0C
:1005E000980F9A3078F40E942E0A80915106E82FD5
:1005F000F0E0E359F94F9091520690838F5F80931A
:1006000051061BC08A3289F490915106992369F0F2
:100610000E94A50A80915106E82FF0E0E359F94FB6
:10062000108281508093510608C08154843028F490
:10063000809153068F5F809353061092520608955F
:1006400082E00E946402809153068F5F809353067C
:1006500008950E94BA0780935206882309F41AC1AC
:1006600090ED980F9A3078F40E942E0A80915006EF
:10067000E82FF0E0E856F94F9091520690838F5F93
:10068000809350061BC08A3289F4909150069923BA
:1006900069F00E94A50A80915006E82FF0E0E85624
:1006A000F94F108281508093500608C081548430E5
:1006B00028F4809153068F5F809353061092520660
:1006C00008958DE696E00E949E0E809362060E9439
:1006D0001807882339F041E060EB76E080916206EC
:1006E0000E94010760EB76E088E996E00E94BC0E6C
:1006F000892BA1F442E065E776E0809162060E94D2
:10070000010783E00E94640285E796E00E94C10A27
:10071000809153068F5F80935306089584E00E9472
:10072000640280914F068F5F80934F0610925106AE
:100730001092500691E090935306909166008913B1
:10074000A9C088E092E00E94660D8AE00E946402DF
:100750000E942E0508952FEF83ED90E321508040F5
:100760009040E1F700C0000086E00E9464028091A2
:1007700053068F5F8093530608950E94BA078093B3
:100780005206882309F486C09FEC980F943058F4E1
:10079000805380934E0610925206809153068F5FCD
:1007A00080935306089585E00E9464028091530669
:1007B00081508093530608952F5F209353068091B4
:1007C0004E06823069F018F4813031F0089583309C
:1007D00059F0843069F0089587E00E94640208951A
:1007E00088E00E946402089589E00E9464020895EE
:1007F0000E94DB091092530608950E94BA07809365
:100800005206882309F446C09FEC980F943058F4A0
:10081000805380934D0610925206809153068F5F4D
:1008200080935306089585E00E94640280915306E8
:10083000815080935306089580914E06823089F04E
:100840008330E1F0813031F580914D06843018F429
:100850000E94EE0408958930E9F424502093530651
:10086000089580914D06833018F40E947B05089509
:10087000893081F4245020935306089580914D06C9
:10088000863018F40E947B050895893019F42450AD
:10089000209353060895CF93DF9300D01F92CDB7D6
:1008A000DEB780914B0690914C06019690934C06D2
:1008B00080934B068D3D9E4120F010924C06109285
:1008C0004B0680915306811146C0811144C080912E
:1008D0004B0690914C06892BF1F5809160004AE01F
:1008E000BE016F5F7F4F90E00E94CC0E80E392E0EC
:1008F0000E94C10A80916100811105C084E392E0E9
:100900000E94C10A0DC0813029F489E392E00E945F
:10091000C10A06C0823021F48EE392E00E94C10A2F
:1009200083E492E00E94C10ACE0101960E94C10AAE
:10093000809160008A3028F489E492E00E94C10A24
:1009400006C08A3020F08DE492E00E94C10A80E562
:1009500092E00E94C10A0F900F900F90DF91CF910B
:100960000895809161008230B1F48230A1F48091C9
:10097000600090916400891730F00E94DD0481E0EE
:1009800080936100089590916300981720F00E9471
:10099000E6041092610008950E9417010E94C302AC
:1009A0000E944B040E940D010E94B104089541E091
:1009B00062E080E00E94A00B089541E062E080E0E8
:1009C0000E94100C81E080936100089540E062E095
:1009D00080E00E94100C1092610008958230A9F00E
:1009E000833019F1813089F580916100823029F4DA
:1009F00081E692E00E94660D089582E08093610096
:100A000085E792E00E94660D089580916100811152
:100A100005C086E892E00E94660D08950E94E604F3
:100A20008CE992E00E94660D08958091610081300A
:100A300029F483EB92E00E94660D08950E94DD0484
:100A400089EC92E00E94660D08950E94A40D08951D
:100A500041E063E080E00E94100C08950E94E80CE1
:100A60000E942805FFCF1F920F920FB60F921124FC
:100A70002F933F934F935F936F937F938F939F93A6
:100A8000AF93BF93EF93FF939091580680915606D2
:100A9000981730F441E063E083E00E94100C07C037
:100AA000981728F040E063E083E00E94100C8091EA
:100AB00058068F5F809358068D3F10F010925806AD
:100AC000FF91EF91BF91AF919F918F917F916F9126
:100AD0005F914F913F912F910F900FBE0F901F90FC
:100AE000189541E063E083E00E94A00B0E94EC0CAB
:100AF0000E94020D08958230E9F018F4813031F03F
:100B00000895833051F18430D1F1089580915606D3
:100B10008A3F29F48FED92E00E94660D08958A3F86
:100B200008F03FC08E5C809356068CEE92E00E94E7
:100B3000660D089580915606811105C08EEF92E0F2
:100B40000E94660D0895882361F1825380935606B2
:100B50008BE093E00E94660D089580915606811106
:100B600005C08DE193E00E94660D08958823C9F0C9
:100B7000109256068AE293E00E94660D08958091D5
:100B80005606811108C08E5C809356068CE393E074
:100B90000E94660D0895882321F08DE493E00E9461
:100BA000660D08951092560608958130A9F082309E
:100BB00031F580915706882319F0813031F008957E
:100BC00089E593E00E94660D08951092570681E72B
:100BD00093E00E94660D089580915706882319F0CE
:100BE000813049F0089581E08093570686E893E0CC
:100BF0000E94660D08958BE993E00E94660D0895AA
:100C000041E067E083E00E94A00B40E067E083E002
:100C10000E94100C8EB58A608EBD83E08BBD88EE7D
:100C20008ABD89B7806189BF0E94E40C08950E9443
:100C3000060D08950F931F93CF93DF938C011770C8
:100C400012FBCC27C0F9CC0FCC0FCC0F11FB88279F
:100C500080F9880F880FC82B812F8170880FC82BCF
:100C6000C06AD1E0DC0F0E94200D88E00E94120DC6
:100C7000813031F58C2F0E94320D88E10E94120DD7
:100C8000813001F5802F0E94320D88E20E94120D02
:100C90008130D1F40E94200D80E10E94120D81303C
:100CA000A9F48D2F0E94320D80E40E94120D813034
:100CB00079F480E00E94260DC82F0E941D0D09C006
:100CC000C0E007C0C0E005C0C0E003C0C0E001C094
:100CD000C0E08FE59DE60197F1F700C000008C2F82
:100CE000DF91CF911F910F9108951F93CF93DF93C1
:100CF000D82F162F92FB882780F9282F220F220F3A
:100D0000220F91FB882780F9880F880F822B917022
:100D1000990F982BC92FC06A0E94200D88E00E946D
:100D2000120D813001F58C2F0E94320D88E10E9456
:100D3000120D8130C1F48D2F0E94320D88E20E9485
:100D4000120D882381F0812F0E94320D88E20E94CB
:100D5000120D882341F00E941D0D8FE59DE601973D
:100D6000F1F700C00000DF91CF911F910895EF923D
:100D7000FF920F931F93CF938C017B01C0E005C0BE
:100D8000800F911F0E947506CF5F8C2F90E0F701B6
:100D9000E80FF91F60816111F3CF800F911F019659
:100DA0000E947506CF911F910F91FF90EF900895CB
:100DB000CF92DF92EF92FF920F931F93CF936C012C
:100DC0008B010E941A06F8018083C0E00CC0CF5F3F
:100DD0008C2F90E07801E80EF91E8C0D9D1D0E946D
:100DE0001A06F7018083F801EC0FF11D8081811153
:100DF000EECFCF911F910F91FF90EF90DF90CF90AA
:100E00000895833631F024E1829FC00111240A96AF
:100E100002C08AE090E0413019F0423029F0089594
:100E200001960E94D80608950A960E94D806089551
:100E3000833631F024E1829FC00111240A9602C05A
:100E40008AE090E00E941A06089524E1829FC00182
:100E5000112460E00A960E94750608951F93CF93AF
:100E6000DF93C0E0D0E007C01C2F8C2F0E94180732
:100E7000882341F021968091650090E0C817D9073A
:100E80009CF310E0812FDF91CF911F910895EF9295
:100E9000FF920F931F93CF93DF938B017A0194E11D
:100EA000899FE0011124682FCE010A960E947506E1
:100EB000B701CE010B960E94B706B801CE01449649
:100EC0000E94B706DF91CF911F910F91FF90EF9095
:100ED000089541E064E081E00E94A00B41E065E0FC
:100EE00081E00E94A00B41E066E081E00E94A00B3F
:100EF00041E067E081E00E94A00B40E063E082E017
:100F00000E94A00B40E064E082E00E94A00B40E061
:100F100065E082E00E94A00B40E066E082E00E9473
:100F2000A00B41E064E081E00E94100C41E065E02C
:100F300081E00E94100C41E066E081E00E94100C0C
:100F400041E067E081E00E94100C41E063E082E054
:100F50000E94100C41E064E082E00E94100C41E02D
:100F600065E082E00E94100C41E066E082E00E94B1
:100F7000100C0895CF9340E064E081E00E94100CD3
:100F800041E065E081E00E94100C41E066E081E014
:100F90000E94100C41E067E081E00E94100C63E0C9
:100FA00082E00E94B60C811108C063E082E00E94DA
:100FB000B60C8823D1F3C1E32BC064E082E00E9429
:100FC000B60C811108C064E082E00E94B60C882350
:100FD000D1F3C4E31DC065E082E00E94B60C81112C
:100FE00008C065E082E00E94B60C8823D1F3C7E315
:100FF0000FC066E082E00E94B60C811108C066E076
:1010000082E00E94B60C8823D1F3CAE201C0C0E09E
:1010100041E064E081E00E94100C40E065E081E086
:101020000E94100C41E066E081E00E94100C41E05B
:1010300067E081E00E94100C63E082E00E94B60C41
:10104000811108C063E082E00E94B60C8823D1F3CE
:10105000C2E329C064E082E00E94B60C811108C09E
:1010600064E082E00E94B60C8823D1F3C5E31BC084
:1010700065E082E00E94B60C811108C065E082E064
:101080000E94B60C8823D1F3C8E30DC066E082E06D
:101090000E94B60C811107C066E082E00E94B60C87
:1010A0008823D1F3C0E341E064E081E00E94100CAA
:1010B00041E065E081E00E94100C40E066E081E0E4
:1010C0000E94100C41E067E081E00E94100C63E098
:1010D00082E00E94B60C811108C063E082E00E94A9
:1010E000B60C8823D1F3C3E329C064E082E00E94F8
:1010F000B60C811108C064E082E00E94B60C88231F
:10110000D1F3C6E31BC065E082E00E94B60C8111FA
:1011100008C065E082E00E94B60C8823D1F3C9E3E1
:101120000DC066E082E00E94B60C811107C066E047
:1011300082E00E94B60C8823D1F3C3E241E064E070
:1011400081E00E94100C41E065E081E00E94100CFB
:1011500041E066E081E00E94100C40E067E081E041
:101160000E94100C63E082E00E94B60C811108C05E
:1011700063E082E00E94B60C8823D1F3C1E429C069
:1011800064E082E00E94B60C811108C064E082E055
:101190000E94B60C8823D1F3C2E41BC065E082E054
:1011A0000E94B60C811108C065E082E00E94B60C76
:1011B0008823D1F3C3E40DC066E082E00E94B60C40
:1011C000811107C066E082E00E94B60C8823D1F34B
:1011D000C4E48C2FCF91089541E063E081E00E9448
:1011E000100C8FED9EE20197F1F700C0000040E087
:1011F00063E081E00E94100C8FED9EE20197F1F711
:1012000000C000000895CF93C82F40E061E081E066
:101210000E94100C40E062E081E00E94100CC4FBD0
:10122000442740F964E080E00E94100CC5FB44278D
:1012300040F965E080E00E94100CC6FB442740F9AD
:1012400066E080E00E94100C4C2F441F4427441F8E
:1012500067E080E00E94100C0E94EC088FE19EE4A1
:101260000197F1F700C000004C2F417064E080E06E
:101270000E94100CC1FB442740F965E080E00E9409
:10128000100CC2FB442740F966E080E00E94100C7D
:10129000C3FB442740F967E080E00E94100C0E94E5
:1012A000EC088FE19EE40197F1F700C00000CF91B8
:1012B000089541E061E081E00E94A00B41E062E01E
:1012C00081E00E94A00B41E063E081E00E94A00B5E
:1012D00041E064E080E00E94A00B41E065E080E036
:1012E0000E94A00B41E066E080E00E94A00B41E07C
:1012F00067E080E00E94A00B2FE785EB91E0215092
:1013000080409040E1F700C0000083E30E940309A1
:101310008FE39FE10197F1F700C0000082E30E9494
:1013200003098FE39FE10197F1F700C0000088E215
:101330000E9403098FE39FE10197F1F700C00000CD
:101340008FE00E9403098FE39FE10197F1F700C04E
:10135000000086E00E9403098FE39FE10197F1F707
:1013600000C0000081E00E9403098FE39FE1019724
:10137000F1F700C00000109259060895CF93DF9353
:10138000C82FD62F862F90E4C99F800D1124806826
:101390000E940309C11105C0D03118F4D093590639
:1013A00007C0C13029F4D03118F4D05FD09359066A
:1013B000DF91CF91089581E00E9403098FE39FE1BF
:1013C0000197F1F700C00000109259060895CF93DD
:1013D000C82F811122C0809159068F3020F48F5F71
:1013E000809359061AC08F3041F48F5F809359065D
:1013F00060E081E00E94BE0910C090EF980F9F301E
:1014000020F48F5F8093590608C08F3131F4109219
:10141000590660E080E00E94BE09C130E9F4809185
:1014200059069FEF980F9F3018F49093590614C0F7
:10143000803129F46FE080E00E94BE090DC02FEEDC
:10144000280F2F3018F49093590606C0811104C05C
:101450006FE081E00E94BE09CF910895CF9390EE96
:10146000980F9E3508F056C0C82F41E061E081E03A
:101470000E94100C40E062E081E00E94100CC4FB6E
:10148000442740F964E080E00E94100CC5FB44272B
:1014900040F965E080E00E94100CC6FB442740F94B
:1014A00066E080E00E94100C4C2F441F4427441F2C
:1014B00067E080E00E94100C0E94EC088FE19EE43F
:1014C0000197F1F700C000004C2F417064E080E00C
:1014D0000E94100CC1FB442740F965E080E00E94A7
:1014E000100CC2FB442740F966E080E00E94100C1B
:1014F000C3FB442740F967E080E00E94100C0E9483
:10150000EC088FE19EE40197F1F700C0000080E055
:101510000E94E709CF910895CF93C82F81110BC086
:10152000809159068F3138F484E10E9403098C2F91
:101530000E94E70908C0C13031F480E10E9403092C
:101540008C2F0E94E709CF91089581E00E948C0AB8
:101550008FE39FE10197F1F700C0000080E20E9455
:101560002E0A8FE39FE10197F1F700C0000081E0B0
:101570000E948C0A8FE39FE10197F1F700C0000001
:1015800008950F931F93CF938C01C0E009C00E9470
:101590002E0ACF5F8FE19EE40197F1F700C00000B3
:1015A000F801EC0FF11D80818111F1CFCF911F91D6
:1015B0000F91089541E062E082E00E94A00B41E0BB
:1015C00067E082E00E94A00B41E063E083E00E94BC
:1015D000A00B41E065E083E00E94A00B41E064E0E5
:1015E00083E00E94A00B41E060E080E00E94A00B3D
:1015F000089540E062E082E00E94100C089540E00F
:1016000067E082E00E94100C089540E063E083E010
:101610000E94100C089540E065E083E00E94100CE9
:10162000089540E064E083E00E94100C089542E0D9
:1016300062E082E00E94100C089542E067E082E0E0
:101640000E94100C089542E063E083E00E94100CB9
:10165000089542E065E083E00E94100C089542E0A6
:1016600064E083E00E94100C0895CF93833099F0DA
:1016700028F4813041F0823051F019C0843079F083
:10168000853089F014C00E94170BC0E011C00E9481
:101690001D0BC1E00DC00E94230BC2E009C00E94D7
:1016A000290BC3E005C00E942F0BC4E001C0C0E0BD
:1016B00083EB93E00E94660D8C2F90E00E94620DF8
:1016C00088EB93E00E94660DCF9108950E94EA0096
:1016D0000E94CC04FDCF86B1806886B9089586B19A
:1016E0008F7786B9089586B1806486B90895369952
:1016F000FECF089587B1806487B987B18F7787B9A6
:1017000087B1806287B986B18E7F86B986B18D7FB9
:1017100086B986B1846086B90895CF93C82F0E9498
:101720006F0B87B1807E87B987B1C82BC7B90E947C
:101730006B0B0E94730B0E94770B85B1CF910895BC
:101740004130A1F5813089F028F08230C9F0833032
:1017500011F108952AB381E090E002C0880F991F2B
:101760006A95E2F7822B8ABB089527B381E090E067
:1017700002C0880F991F6A95E2F7822B87BB0895F4
:1017800024B381E090E002C0880F991F6A95E2F7C8
:10179000822B84BB089521B381E090E002C0880FC2
:1017A000991F6A95E2F7822B81BB0895411137C0DA
:1017B000813091F028F08230D9F0833029F10895FA
:1017C0002AB381E090E002C0880F991F6A95E2F782
:1017D000809582238ABB089527B381E090E002C000
:1017E000880F991F6A95E2F78095822387BB089539
:1017F00024B381E090E002C0880F991F6A95E2F758
:101800008095822384BB089521B381E090E002C0DB
:10181000880F991F6A95E2F78095822381BB08950E
:101820004130A1F5813089F028F08230C9F0833051
:1018300011F108952BB381E090E002C0880F991F49
:101840006A95E2F7822B8BBB089528B381E090E084
:1018500002C0880F991F6A95E2F7822B88BB089512
:1018600025B381E090E002C0880F991F6A95E2F7E6
:10187000822B85BB089522B381E090E002C0880FDF
:10188000991F6A95E2F7822B82BB0895411138C0F7
:10189000813091F028F08230D9F0833029F1089519
:1018A0002BB381E090E002C0880F991F6A95E2F7A0
:1018B000809582238BBB089528B381E090E002C01D
:1018C000880F991F6A95E2F78095822388BB089557
:1018D00025B381E090E002C0880F991F6A95E2F776
:1018E0008095822385BB089522B381E090E002C0F9
:1018F000880F991F6A95E2F78095822382BB08952D
:10190000423099F5813089F028F08230C9F0833077
:1019100011F108952BB381E090E002C0880F991F68
:101920006A95E2F782278BBB089528B381E090E0A7
:1019300002C0880F991F6A95E2F7822788BB089535
:1019400025B381E090E002C0880F991F6A95E2F705
:10195000822785BB089522B381E090E002C0880F02
:10196000991F6A95E2F7822782BB0895813079F04A
:1019700028F08230A9F08330E1F024C089B390E0F0
:1019800002C0959587956A95E2F78170089586B3B0
:1019900090E002C0959587956A95E2F78170089569
:1019A00083B390E002C0959587956A95E2F78170C0
:1019B000089580B390E002C0959587956A95E2F707
:1019C0008170089580E008958FB780688FBF089573
:1019D0008FB78F778FBF089583B78F7B83BF83B710
:1019E000877F83BF83B78B7F83BF83B78D7F83BFA1
:1019F00083B7816083BF83B78F7D83BF83B78F7EBB
:101A000083BF089589B7816089BF08958AE080B94E
:101A100081B1816081B981B18D7F81B986B78460E0
:101A200086BF089521B190E0287F30E082179307A8
:101A300011F481E0089580E0089584E986BF089557
:101A400084EA86BF06B607FEFDCF0895813019F4FB
:101A500086B7806486BF84E886BF06B607FEFDCFE2
:101A600083B1089583B984E886BF06B607FEFDCF2B
:101A700008958AB180688AB908958AB18B7F8AB93E
:101A800080B5846080BD80B5826080BD80B58F7B6D
:101A900080BD80B5806880BD80B58F7D80BD80B5FC
:101AA0008F7E80BD80B5877F80BD10BC87E689B9F9
:101AB0008AB180618AB98AB188608AB98AB180683E
:101AC0008AB908955D9BFECF8CB908950F931F933B
:101AD000CF938C01C0E003C00E94620DCF5FF8017C
:101AE000EC0FF11D80818111F7CFCF911F910F91E4
:101AF00008955F9BFECF8CB10895EF92FF921F93E4
:101B0000CF93DF937C0110E0E701C10FD11D0E944C
:101B1000790D88838D3009F4188288818A3011F418
:101B2000188202C01F5FF0CFDF91CF911F91FF900D
:101B3000EF90089584EC93E00E94660D08958AED7D
:101B400093E00E94660D08958CEE93E00E94660D6E
:101B5000089587E094E00E94660D88E194E00E9479
:101B6000660D8AE294E00E94660D8BE394E00E9489
:101B7000660D8EE494E00E94660D83E694E00E9478
:101B8000660D89E794E00E94660D8FE894E00E945C
:101B9000660D089581EA94E00E94660D84EB94E05E
:101BA0000E94660D87EC94E00E94660D8AED94E039
:101BB0000E94660D8DEE94E00E94660D80E095E037
:101BC0000E94660D08958BE095E00E94660D89E104
:101BD00095E00E94660D82E395E00E94660D80E02C
:101BE00095E00E94660D08958BE495E00E94660DD5
:101BF00080E695E00E94660D80E095E00E94660D0B
:101C0000089586E795E00E94660D86E895E00E94BB
:101C1000660D88E995E00E94660D89EA95E00E94CC
:101C2000660D80E095E00E94660D08951F93CF93A6
:101C3000DF93CDB7DEB728970FB6F894DEBF0FBE9F
:101C4000CDBF11E021C0812F0E9418078823D9F051
:101C500089EB95E00E94660D80E3810F0E94620D82
:101C60008DEF90E00E94660D42E0BE016F5F7F4FF6
:101C7000812F0E940107CE0101960E94660D89E422
:101C800095E00E94660D1F5F809165001817D8F2DD
:101C900028960FB6F894DEBF0FBECDBFDF91CF916F
:101CA0001F91089582EC95E00E94660D08958DEDD8
:101CB00095E00E94660D08958BEF95E00E94660DF9
:101CC000089589E196E00E94660D0E949A0D08959C
:101CD00090E0FC013197E830F105D8F4E15CFF4F6A
:101CE0000C94980E0E94CA0D08950E94E30D089569
:101CF0000E94F40D08950E94010E08950E94160E90
:101D000008950E94570E08950E94520E08950E9451
:101D1000610E08958FE296E00E94660D809155064F
:101D2000805D0E94620D88E495E00E94660D089532
:101D3000EE0FFF1F0590F491E02D0994FC01882718
:101D40009927E89421912032E9F3293010F02E30C0
:101D5000C8F32B3241F02D3239F4689404C00E944C
:101D6000D70E820F911D219120532A30C0F31EF40B
:101D7000909581959F4F0895FB01DC018D91019015
:101D800080190110D9F3990B0895FB01DC01019032
:101D90000D920020E1F70895BB274A3031F49923D2
:101DA00022F4BDE2909581959F4F0C94E00E7AE06D
:101DB000979F902D879F802D910D11240895BB270B
:101DC000FB015527AA27880F991FAA1FA41710F0F7
:101DD000A41B83955051B9F7A05DAA3308F0A95D03
:101DE000A193009779F7B111B1931192CB010C94A3
:101DF000F90EDC01FC01672F71917723E1F732972F
:101E000004C07C916D9370836291AE17BF07C8F3D5
:061E10000895F894FFCFD5
:101E16001D0201151C050357656C636F6D65204235
:101E260061636B212000417574682044656E6965A5
:101E3600642C204F6E6C792041646D696E20467566
:101E46006E6374696F6E21200A00557365722044B3
:101E5600656C657465642053756363657373667535
:101E66006C6C79005573657220446F6573206E6FD4
:101E76007420457869737421004E65772055736523
:101E86007220526567697374657265642053756361
:101E960063657373210A004E65772055736572205A
:101EA60049443A20004E6577205573657220557374
:101EB60065726E616D653A2000456E7465722055D7
:101EC60073657249443A20202000456E746572207D
:101ED60050617373776F72643A200057656C636F55
:101EE6006D65204261636B21202020004175746876
:101EF600204661696C656421202020200054727997
:101F060020416761696E2020202020202000496E34
:101F160076616C69642053656C656374656400283A
:101F260031294143202028322944696D6D657200AC
:101F36002833294C6564202834294C6F676F7574E3
:101F46000041432831294175746F202832294F6694
:101F5600660041432833294F4E20202839294578E9
:101F660069740044696D6D657220486967686572B9
:101F7600283129002830294C6F77657220283929A5
:101F860045786974004C6564204E6F2E28312928E7
:101F960032292833290028342928352920202028C9
:101FA6003929457869740053797374656D204C6FCF
:101FB600636B6564202020000A4B4559504144203C
:101FC6004C6F67696E204661696C65642C200A5304
:101FD600797374656D204C6F636B656421200A000C
:101FE600414328004F464629004F4E29200041759F
:101FF60074290054656D7028006329200063290048
:102006002020202020202020283029204D6F726596
:1020160000414320697320416C72656164792041F7
:1020260075746F21004143204175746F20537563A9
:10203600636573732100414320697320416C7265A7
:1020460061647920436C6F736564210041432054B9
:1020560075726E6564204F6666205375636365739B
:10206600732100414320416C726561647920547587
:10207600726E6564204F4E21004143205475726E86
:102086006564204F6E205375636365737321004149
:102096006C7265616479204D4158210044696D6D0B
:1020A600657220496E637265617365642100416CD7
:1020B6007265616479204D494E210044696D6D65F4
:1020C60072204465637265617365642100416C72B8
:1020D60065616479204F464621005475726E204F23
:1020E6006666205375636365737321005475726E5B
:1020F600204F6E20537563636573732100416C72C4
:1021060065616479204F4E2100446F6F72206973B8
:1021160020416C726561647920436C6F736564213C
:1021260000446F6F7220436C6F7365642053756350
:10213600636573732100446F6F72204F70656E651F
:102146006420537563636573732100446F6F722057
:10215600697320416C7265616479204F70656E65A4
:102166006421004C65642000546F67676C656400E9
:10217600256C750020456E7465722055736572492D
:10218600443A28317E3939290A0020456E74657231
:102196002050617373776F72643A0A00496E7661F4
:1021A6006C696420696E70757420207472792041A0
:1021B6006761696E200A0043686F6F7365204F7010
:1021C60074696F6E3A200A0028312920436F6E74B5
:1021D600726F6C204C6564200A0028322920436FF8
:1021E6006E74726F6C204143200A00283329204305
:1021F6006F6E74726F6C20446F6F72200A00283401
:102206002920436F6E74726F6C2044696D6D657220
:10221600200A002835292053686F77205573657288
:1022260073206C697374200A00283629204372656E
:10223600617465204E65772055736572200A002803
:1022460037292044656C6574652055736572200ACC
:102256000028312920546F67676C65204C6564201F
:1022660031200A0028322920546F67676C65204C9C
:1022760065642032200A0028332920546F67676C72
:1022860065204C65642033200A0028342920546FC9
:1022960067676C65204C65642034200A0028352960
:1022A60020546F67676C65204C65642035200A00F2
:1022B600283029204261636B200A002831292041F9
:1022C60043204175746F200A00283229204143209B
:1022D6004D616E75616C205475726E204F66662076
:1022E6000A00283329204143204D616E75616C2018
:1022F6005475726E204F6E20200A00283129204F17
:1023060070656E20446F6F72204C6F636B200A00FD
:1023160028322920436C6F736520446F6F72204CFE
:102326006F636B200A002831292044696D6D657240
:10233600205570200A002832292044696D6D657287
:1023460020446F776E200A002833292044696D6D7A
:102356006572204F6666200A002834292044696D7C
:102366006D6572204F6E200A005573657249443AB6
:102376002000456E74657220557365724944205479
:102386006F2044656C657465203A200A00456E74BA
:10239600657220546865204E6577557365722055C1
:1023A6007365726E616D653A200A00456E746572DA
:1023B60020546865204E65775573657220506173A9
:1023C60073776F72643A200A004C6F676765642002
:1023D6006F6666205375636365737321200A004C2C
:1023E6006F67696E204661696C65642C205472794A
:0A23F60020616761696E212000007C
:00000001FF
