:100000000C942A000C9447000C9447000C94470071
:100010000C9447000C9447000C9447000C9480010A
:100020000C9447000C9447000C9447000C94B300C8
:100030000C9447000C9462030C9447000C94470006
:100040000C9447000C9447000C9447000C94470014
:100050000C94470011241FBECFE5D8E0DEBFCDBF12
:1000600014E0A0E6B0E0E2E5FFE002C005900D92EA
:10007000A03DB107D9F724E0A0EDB4E001C01D9286
:10008000AA3EB207E1F70E946C040C94A7070C94F7
:10009000000041E062E080E00E94D604089541E063
:1000A00062E080E00E944605089540E062E080E062
:1000B0000E94460508958230C9F0833071F1813085
:1000C00009F043C08091D104882319F0813049F0B0
:1000D000089581E08093D1048AE990E00E946E0641
:1000E00008958BEA90E00E946E0608958091D004F6
:1000F000882319F0813031F008958FEB90E00E9451
:100100006E0608950E9455001092D0041092D104FA
:1001100085ED90E00E946E0608958091D0048823BA
:1001200019F0813069F008950E944F0081E08093BA
:10013000D0041092D1048CEE90E00E946E060895D7
:1001400082E091E00E946E0608950E94AC06089538
:1001500041E063E080E00E94460508950E94F005BA
:100160000E94A800FFCF1F920F920FB60F9211248A
:100170002F933F934F935F936F937F938F939F93AF
:10018000AF93BF93EF93FF939091D2048091D304E8
:10019000981730F441E063E083E00E94460507C011
:1001A000981728F040E063E083E00E9446058091C4
:1001B000D2048F5F8093D2048E3F10F01092D2044D
:1001C000FF91EF91BF91AF919F918F917F916F912F
:1001D0005F914F913F912F910F900FBE0F901F9005
:1001E000189541E063E083E00E94D6040E94F40584
:1001F0000E940A0608958230E9F018F4813031F047
:100200000895833051F18430D1F108958091D30461
:100210008A3F29F488E191E00E946E0608958A3FA2
:1002200008F03FC08E5C8093D30485E291E00E9489
:100230006E0608958091D304811105C087E391E093
:100240000E946E060895882361F182538093D3043F
:1002500084E491E00E946E0608958091D304811198
:1002600005C086E591E00E946E0608958823C9F0D6
:100270001092D30483E691E00E946E060895809167
:10028000D304811108C08E5C8093D30485E791E08C
:100290000E946E060895882321F086E891E00E946E
:1002A0006E0608951092D30408958130A9F082302B
:1002B00031F58091D504882319F0813031F008950B
:1002C00082E991E00E946E0608951092D5048AEAB0
:1002D00091E00E946E0608958091D504882319F05C
:1002E000813049F0089581E08093D5048FEB91E04F
:1002F0000E946E06089584ED91E00E946E060895B6
:100300001F920F920FB60F9211242F933F934F938A
:100310005F936F937F938F939F93AF93BF93EF936D
:10032000FF938091D404811106C041E067E083E02F
:100330000E94460517C0813051F48091D504811187
:1003400011C040E067E083E00E9446050BC08530A5
:1003500049F48091D504813029F440E067E083E0DE
:100360000E9446058091D404883220F48F5F8093E8
:10037000D40402C01092D404FF91EF91BF91AF91C9
:100380009F918F917F916F915F914F913F912F91AD
:100390000F900FBE0F901F90189541E067E083E02B
:1003A0000E94D60440E067E083E00E9446058EB5D7
:1003B0008A608EBD83E08BBD88EE8ABD89B780617F
:1003C00089BF0E94EC0508950E940E0608950F93C0
:1003D0001F93CF93DF938C01177012FBCC27C0F9CA
:1003E000CC0FCC0FCC0F11FB882780F9880F880F1A
:1003F000C82B812F8170880FC82BC06AD1E0DC0F19
:100400000E94280688E00E941A06813031F58C2F60
:100410000E943A0688E10E941A06813001F5802F79
:100420000E943A0688E20E941A068130D1F40E94A6
:10043000280680E10E941A068130A9F48D2F0E94BF
:100440003A0680E40E941A06813079F480E00E9426
:100450002E06C82F0E94250609C0C0E007C0C0E0D4
:1004600005C0C0E003C0C0E001C0C0E08FE19EE471
:100470000197F1F700C000008C2FDF91CF911F9101
:100480000F9108951F93CF93DF93D82F162F92FBD0
:10049000882780F9282F220F220F220F91FB88270F
:1004A00080F9880F880F822B9170990F982BC92F94
:1004B000C06A0E94280688E00E941A06813001F571
:1004C0008C2F0E943A0688E10E941A068130C1F4FE
:1004D0008D2F0E943A0688E20E941A06882381F036
:1004E000812F0E943A0688E20E941A06882341F072
:1004F0000E9425068FE19EE40197F1F700C00000FD
:10050000DF91CF911F910895EF92FF920F931F9368
:10051000CF938C017B01C0E005C0800F911F0E942A
:100520004202CF5F8C2F90E0F701E80FF91F608146
:100530006111F3CF800F911F0E944202CF911F9152
:100540000F91FF90EF900895CF92DF92EF92FF927C
:100550001F93CF93DF936C017B0110E006C08C0DDD
:100560009D1D0E94E70188831F5F812F90E0E701B6
:10057000C80FD91F28812111F2CF1882DF91CF91A6
:100580001F91FF90EF90DF90CF900895833631F068
:1005900024E1829FC00111240A9602C08AE090E003
:1005A000413019F0423029F0089501960E94A402CA
:1005B00008950A960E94A4020895833631F024E13A
:1005C000829FC00111240A9602C08AE090E00E9436
:1005D000E701089541E062E082E00E94D60441E034
:1005E00067E082E00E94D60441E063E083E00E947D
:1005F000D60441E065E083E00E94D60441E064E077
:1006000083E00E94D60441E060E080E00E94D604CE
:10061000089540E062E082E00E944605089540E0CF
:1006200067E082E00E944605089540E063E083E0D1
:100630000E944605089540E065E083E00E9446057B
:10064000089540E064E083E00E944605089542E09A
:1006500062E082E00E944605089542E067E082E0A1
:100660000E944605089542E063E083E00E9446054B
:10067000089542E065E083E00E944605089542E067
:1006800064E083E00E94460508950E94EA020E9409
:100690000F030E9415030E941B030E9421030E9466
:1006A00009030E9449000E94CD010E94F1000E94AE
:1006B00052010E94E4010E9445060E9441060E94E8
:1006C000EC0508951F920F920FB60F9211242F93ED
:1006D0003F934F935F936F937F938F939F93AF93CA
:1006E000BF93EF93FF9382EE94E00E94850681E032
:1006F0008093DF04FF91EF91BF91AF919F918F9114
:100700007F916F915F914F913F912F910F900FBE0D
:100710000F901F9018951092DF0408950E948B038C
:10072000809179008F5F809379000895CF93C82FCF
:100730000E948B03C0937900CF91089589EF91E0D7
:100740000E946E068091DE04805D0E946A0680E34E
:1007500094E00E946E0608958091DF04813009F0D4
:10076000BAC01092DF04809179008330E9F028F458
:10077000813051F0823069F00895843009F45EC010
:10078000853009F46BC008950E94A2060E948E0372
:10079000089562EE74E081E790E00E9498070E945D
:1007A000A7060E948E03089562EE74E086ED94E041
:1007B0000E94980781E790E00E9471078093700083
:1007C0000E94DD02882371F042E068E670E08091CB
:1007D00070000E94C60241E060E670E08091700007
:1007E0000E94C60266ED74E080E690E00E948F07EA
:1007F000892B89F483E192E00E946E0688E690E0FE
:100800000E946E0681E394E00E946E060E94B1068B
:100810000E948E0308958091DE048F5F8093DE0432
:10082000833030F082E292E00E946E060E94AE00B9
:100830000E949E0381E00E949603089582EE94E058
:100840000E9471078093E0040E942A070E948B0394
:10085000809179008F5F80937900089582EE94E013
:100860000E9471078093E1048A3038F00E94AC0640
:100870008091E0040E942A070895811108C00E9417
:10088000B10680917900815080937900089590910C
:10089000E004923071F018F4913031F00895933003
:1008A00059F09430B1F008958630A8F40E944107C1
:1008B00008950E945B00089590917000933629F08E
:1008C00082E492E00E946E06089590E00E94550135
:1008D00008950E94FB000895CF93DF93CDB7DEB754
:1008E000A0970FB6F894DEBF0FBECDBF0E944503A0
:1008F00087E0EAE7F0E0DE01119601900D928A951B
:10090000E1F7188685E0E2E8F0E0DE011996019053
:100910000D928A95E1F713E0FE013E96DF01812FEB
:100920001D928A95E9F763E68AE090E00E94420210
:10093000BE01675F7F4F8BE090E00E948402BE01A2
:100940006F5F7F4F84E190E00E94840286E0EAE8D6
:10095000F0E0DE01519601900D928A95E1F7188E34
:100960001F8A85E0E2E9F0E0DE01599601900D92E0
:100970008A95E1F7FE017E96DF011D921A95E9F74F
:1009800061E08EE190E00E944202BE01675E7F4F0F
:100990008FE190E00E948402BE016F5E7F4F88E28B
:1009A00090E00E9484020E94AC03FDCF4130A1F58B
:1009B000813089F028F08230C9F0833011F1089538
:1009C0002AB381E090E002C0880F991F6A95E2F790
:1009D000822B8ABB089527B381E090E002C0880F84
:1009E000991F6A95E2F7822B87BB089524B381E0B3
:1009F00090E002C0880F991F6A95E2F7822B84BBB2
:100A0000089521B381E090E002C0880F991F6A9594
:100A1000E2F7822B81BB0895411137C0813091F0FC
:100A200028F08230D9F0833029F108952AB381E08B
:100A300090E002C0880F991F6A95E2F780958223A3
:100A40008ABB089527B381E090E002C0880F991F08
:100A50006A95E2F78095822387BB089524B381E0ED
:100A600090E002C0880F991F6A95E2F78095822373
:100A700084BB089521B381E090E002C0880F991FE4
:100A80006A95E2F78095822381BB08954130A1F5F4
:100A9000813089F028F08230C9F0833011F1089557
:100AA0002BB381E090E002C0880F991F6A95E2F7AE
:100AB000822B8BBB089528B381E090E002C0880FA1
:100AC000991F6A95E2F7822B88BB089525B381E0D0
:100AD00090E002C0880F991F6A95E2F7822B85BBD0
:100AE000089522B381E090E002C0880F991F6A95B3
:100AF000E2F7822B82BB0895411138C0813091F01A
:100B000028F08230D9F0833029F108952BB381E0A9
:100B100090E002C0880F991F6A95E2F780958223C2
:100B20008BBB089528B381E090E002C0880F991F25
:100B30006A95E2F78095822388BB089525B381E00A
:100B400090E002C0880F991F6A95E2F78095822392
:100B500085BB089522B381E090E002C0880F991F01
:100B60006A95E2F78095822382BB0895423099F519
:100B7000813089F028F08230C9F0833011F1089576
:100B80002BB381E090E002C0880F991F6A95E2F7CD
:100B900082278BBB089528B381E090E002C0880FC4
:100BA000991F6A95E2F7822788BB089525B381E0F3
:100BB00090E002C0880F991F6A95E2F7822785BBF3
:100BC000089522B381E090E002C0880F991F6A95D2
:100BD000E2F7822782BB08958FB780688FBF0895A0
:100BE0008FB78F778FBF089583B78F7B83BF83B70E
:100BF000877F83BF83B78B7F83BF83B78D7F83BF9F
:100C000083B7816083BF83B78F7D83BF83B78F7EB8
:100C100083BF089589B7816089BF08958AE080B94C
:100C200081B1816081B981B18D7F81B986B78460DE
:100C300086BF089521B190E0287F30E082179307A6
:100C400011F481E0089580E0089584E986BF089555
:100C500084EA86BF06B607FEFDCF0895813019F4F9
:100C600086B7806486BF84E886BF06B607FEFDCFE0
:100C700083B1089583B984E886BF06B607FEFDCF29
:100C800008958AB180688AB908958AB18B7F8AB93C
:100C900080B5846080BD80B5826080BD80B58F7B6B
:100CA00080BD80B5806880BD80B58F7D80BD80B5FA
:100CB0008F7E80BD80B5877F80BD10BC87E689B9F7
:100CC0008AB180618AB98AB188608AB98AB180683C
:100CD0008AB908955D9BFECF8CB908950F931F9339
:100CE000CF938C01C0E003C00E946A06CF5FF80179
:100CF000EC0FF11D80818111F7CFCF911F910F91E2
:100D000008955F9BFECF8CB10895EF92FF921F93E1
:100D1000CF93DF937C0110E0E701C10FD11D0E944A
:100D2000810688838D3009F4188288818A3011F415
:100D3000188202C01F5FF0CFDF91CF911F91FF900B
:100D4000EF90089580E692E00E946E0608958CE789
:100D500092E00E946E06089584E992E00E946E0679
:100D6000089585EB92E00E946E0686EC92E00E9468
:100D70006E0689ED92E00E946E068AEE92E00E9475
:100D80006E068DEF92E00E946E0682E193E00E9473
:100D90006E0688E293E00E946E068EE393E00E9466
:100DA0006E0680E593E00E946E0687E693E00E945F
:100DB0006E068BE793E00E946E06089589E893E043
:100DC0000E946E068CE993E00E946E068FEA93E023
:100DD0000E946E0682EC93E00E946E0685ED93E021
:100DE0000E946E0688EE93E00E946E06089583EFDF
:100DF00093E00E946E0681E094E00E946E068AE114
:100E000094E00E946E0688EE93E00E946E060895BC
:100E100083E394E00E946E0688E494E00E946E06EC
:100E200088EE93E00E946E0608958EE594E00E949D
:100E30006E068EE694E00E946E0680E894E00E94C2
:100E40006E0681E994E00E946E0688EE93E00E94AF
:100E50006E060895823061F018F4813031F0089503
:100E6000833049F0843051F008950E94DE060895E1
:100E70000E94F70608950E94080708950E9415072A
:100E80000895CF93833099F028F4813041F0823077
:100E900051F019C0843079F0853089F014C00E9477
:100EA0002703C0E011C00E942D03C1E00DC00E94C5
:100EB0003303C2E009C00E943903C3E005C00E94A9
:100EC0003F03C4E001C0C0E082EC94E00E946E06E3
:100ED0008C2F0E946A0687EC94E00E946E06CF91E8
:100EE0000895FC0188279927E89421912032E9F39D
:100EF000293010F02E30C8F32B3241F02D3239F466
:100F0000689404C00E949F07820F911D2191205375
:100F10002A30C0F31EF4909581959F4F0895FB01F0
:100F2000DC018D91019080190110D9F3990B08957E
:100F3000FB01DC0101900D920020E1F708957AE0B9
:100F4000979F902D879F802D910D11240895F894DF
:020F5000FFCFD1
:100F5200706173730000000077726F6E67000000AB
:100F6200633939000000000000034B617265656D52
:100F720000003132333400000000557365723100D5
:100F820000003433323100000000414320417574C7
:100F92006F20537563636573732100414320697346
:100FA20020416C7265616479204175746F21004142
:100FB2004320697320416C726561647920436C6FD0
:100FC20073656421004143205475726E6564204F3D
:100FD2006666205375636365737321004143205431
:100FE20075726E6564204F6E20537563636573730B
:100FF2002100414320416C7265616479205475720D
:101002006E6564204F4E2100416C726561647920E7
:101012004D4158210044696D6D657220496E6372BD
:1010220065617365642100416C7265616479204D6C
:10103200494E210044696D6D657220446563726595
:10104200617365642100416C7265616479204F4669
:101052004621005475726E204F6666205375636395
:1010620065737321005475726E204F6E2053756341
:10107200636573732100416C7265616479204F4E20
:101082002100446F6F7220697320416C7265616444
:101092007920436C6F7365642100446F6F72204343
:1010A2006C6F7365642053756363657373210044C9
:1010B2006F6F72204F70656E656420537563636550
:1010C20073732100446F6F7220697320416C7265E3
:1010D200616479204F70656E65642100476F696EA7
:1010E20067204261636B210A004C6F67696E20467C
:1010F20061696C65642C2054727920616761696E44
:1011020021200057656C636F6D65204261636B211E
:1011120020004C6F67696E204661696C65642C2003
:101122000A53797374656D204C6F636B656421207B
:101132000A00417574682044656E6965642C20411B
:10114200736B2041646D696E21200A00256C750065
:10115200506C6561736520456E74657220557365C8
:101162007249443A28317E3939290A00506C656146
:10117200736520456E7465722050617373776F7268
:10118200643A0A00496E76616C696420696E707512
:101192007420506C656173652074727920416761B7
:1011A200696E200A0043686F6F7365204F7074691F
:1011B2006F6E3A200A0028312920436F6E74726FD5
:1011C2006C204C656473200A0028322920436F6E1C
:1011D20074726F6C204143200A0028332920436F28
:1011E2006E74726F6C20446F6F72200A002834296B
:1011F20020436F6E74726F6C2044696D6D6572204E
:101202000A002835292053686F7720557365727359
:10121200206C697374200A002836292043726561A4
:101222007465204E65772055736572200A00283751
:10123200292044656C6574652055736572200A0027
:101242002838292044656C65746520416C6C2055F2
:1012520073657273200A0028392920466163746F0E
:101262007279205265736574200A00283029204C57
:101272006F67204F7574200A0028312920546F6748
:10128200676C65204C65642031200A0028322920D1
:10129200546F67676C65204C65642032200A002811
:1012A200332920546F67676C65204C6564203320B6
:1012B2000A0028342920546F67676C65204C6564E6
:1012C2002034200A0028352920546F67676C652076
:1012D2004C65642035200A00283029204261636B66
:1012E200200A00283129204143204175746F200AC9
:1012F20000283229204143204D616E75616C2054D3
:1013020075726E204F6666200A00283329204143F9
:10131200204D616E75616C205475726E204F6E2087
:10132200200A00283129204F70656E20446F6F72A9
:10133200204C6F636B200A0028322920436C6F73A4
:101342006520446F6F72204C6F636B200A00283156
:10135200292044696D6D6572205570200A0028327B
:10136200292044696D6D657220446F776E200A00F2
:101372002833292044696D6D6572204F6666200A04
:10138200002834292044696D6D6572204F6E200A51
:1013920000417574682044656E6965642C20506C48
:1013A200656173652061736B2041646D696E2120F4
:1013B2000A004C65642000546F67676C6564000026
:00000001FF
