S0160000536D6172745F486F6D655F4436362E7372656310
S11300000C9448000C9465000C9465000C946500F5
S11300100C9465000C9465000C9465000C9490009D
S11300200C9465000C9465000C9465000C943805E0
S11300300C9465000C9467000C9465000C946500A6
S11300400C9465000C9465000C9465000C94650098
S11300500C9465007F02840289028E0293029C0242
S1130060A502AE02B702C002C902FA0209031403D0
S11300704C0357038F03D503DE03FD0321043E0421
S1130080560E590E5C0E5F0E620E650E680E6B0EF8
S113009011241FBECFE5D8E0DEBFCDBF15E0A0E63A
S11300A0B0E0EEEDFDE102C005900D92A434B1077D
S11300B0D9F725E0A4E4B5E001C01D92A23BB20744
S11300C0E1F70E94220B0C94ED0E0C9400001F9299
S11300D00F920FB60F9211242F933F934F935F9378
S11300E06F937F938F939F93AF93BF93EF93FF93FC
S11300F082E895E00E94390D81E080934D05FF91DF
S1130100EF91BF91AF919F918F917F916F915F918B
S11301104F913F912F910F900FBE0F901F90189504
S11301201F920F920FB60F9211242F933F934F9368
S11301305F936F937F938F939F93AF93BF93EF934B
S1130140FF9380914405813089F028F08530E9F0EF
S1130150883251F12CC041E067E083E00E94CC0B6F
S1130160809144058F5F8093440524C0809150059D
S1130170811105C040E067E083E00E94CC0B8091D0
S113018044058F5F8093440515C0809150058130EC
S113019029F440E067E083E00E94CC0B80914405A1
S11301A08F5F8093440506C01092440503C08F5F9F
S11301B080934405FF91EF91BF91AF919F918F91EF
S11301C07F916F915F914F913F912F910F900FBE4F
S11301D00F901F9018950E949C0A0E94BC0A0E94CE
S11301E0C20A0E94C80A0E94CE0A0E94B60A0E944D
S11301F0360B0E9476050E9437070E9427090E9449
S1130200F0040E94CE050E94E5050E94F90C0E94AC
S1130210F50C0E94A00C089581E00E94490B22E392
S1130220829FC001112490936100209153052917E6
S113023029F081E0809360009093530508958091A4
S11302404D05813009F04AC110924D05809163003B
S1130250833029F128F4813061F0823091F00895DF
S1130260853009F493C008F469C0863009F404C1E8
S113027008950E94560D809163008F5F8093630000
S1130280089562E875E08AE995E00E94A90E0E944B
S11302905B0D809163008F5F80936300089562E833
S11302A075E08FE595E00E94A90E8AE995E00E9429
S11302B0820E809377050E94E606882371F042E05F
S11302C068E775E0809177050E94CF0641E064E518
S11302D075E0809177050E94CF066FE575E084E5AF
S11302E095E00E94A00E892BA1F488E690E00E947C
S11302F0220D88E795E00E94220D84EF93E00E948E
S1130300220D0E94650D809163008F5F80936300CE
S1130310089580914E058F5F80934E0590916700FC
S1130320891730F087E192E00E94220D0E94330584
S11303300E946E0E81E080936300089582E895E048
S11303400E94820E80935D059AEF980F933010F00F
S1130350833049F490917705913029F087E790E054
S11303600E94220D08950E944C0E80915D058530F7
S113037031F0809163008F5F80936300089588302B
S113038009F0ACC082E080936300089582E895E0B0
S11303900E94820E80935C0590915D052AEF290FDF
S11303A0223098F0893038F00E94600D80915D050C
S11303B00E944C0E0895811108C00E94650D809121
S11303C063008150809363000895933001F128F411
S11303D0913059F0923091F00895963051F1973060
S11303E0B1F1943009F07AC01BC0863020F461E08A
S11303F00E94F20A08950E94600D0895843020F44A
S113040061E00E94070508950E94600D08958330FD
S113041020F461E00E94BB0508950E94600D0895D8
S1130420833020F461E00E94900508950E94600DDD
S1130430089562E875E08AE895E00E94A90E0E949A
S1130440400E809163008F5F8093630008950E9443
S1130450E606882349F080915C050E94F3068BE947
S113046090E00E94220D04C085EB90E00E94220DD2
S113047081E080936300089562E875E082EA95E084
S11304800E94A90E0E94FC0680938105882331F006
S113049042EA55E06AE875E00E9415078AEC90E0AC
S11304A00E94220D88EE90E00E94220D8091810529
S11304B0805D0E941E0D84EF93E00E94220D86EF62
S11304C090E00E94220D8AE895E00E94220D84EFBC
S11304D093E00E94220D81E0809363000895CF93FE
S11304E0C82F0E94A9098C2F90E0FC013197EB30B2
S11304F0F10508F052C0E65DFF4F0C947C0E8AE0D3
S113050091E00E94890A49C08BE191E00E94890A26
S113051044C08CE291E00E94890A3FC08DE391E0DF
S11305200E94890A3AC08EE491E00E94890A8FE50C
S113053091E00E94890A31C080E791E00E94890A13
S113054081E891E00E94890A28C082E991E00E9432
S1130550890A83EA91E00E94890A1FC084EB91E032
S11305600E94890A85EC91E00E94890A16C086EDF2
S113057091E00E94890A87EE91E00E94890A0DC0E9
S11305808DE391E00E94890A88EF91E00E94890A34
S113059004C089E092E00E94890ACF9108951092E4
S11305A049051092480510925E0520E013C0822F81
S11305B090E0FC01E959FA4F1082FC01EE56FA4F23
S11305C01082FC01E655FA4F1082FC01E159FA4F02
S11305D010822F5F283058F3089520914B05822F05
S11305E090E08B30910508F08BC1FC01EB5CFF4F70
S11305F00C947C0E0E94880780934A05882309F492
S11306007FC110924A0580914B058F5F80934B0503
S113061008950E94CF0281E00E946F0280914B05F1
S11306208F5F80934B0508950E94880780934A0545
S1130630882309F465C190ED980F9A3078F40E94EC
S1130640F60980914905E82FF0E0E959FA4F9091B5
S11306504A0590838F5F809349051BC08A3289F4D1
S113066090914905992369F00E946D0A809149058A
S1130670E82FF0E0E959FA4F108281508093490540
S113068008C08154843028F480914B058F5F809397
S11306904B0510924A05089582E00E946F02109261
S11306A0490580914B058F5F80934B0508950E9407
S11306B0880780934A05882309F422C190ED980F96
S11306C09A3078F40E94F60980914805E82FF0E00A
S11306D0EE56FA4F90914A0590838F5F80934805B8
S11306E01BC08A3289F490914805992369F00E94CD
S11306F06D0A80914805E82FF0E0EE56FA4F10821B
S113070081508093480508C08154843028F4809136
S11307104B058F5F80934B0510924A05089587E639
S113072095E00E94820E80935E050E94E60688236F
S113073039F041E06AEA75E080915E050E94CF06D7
S11307406AEA75E082E995E00E94A00E892BA1F483
S113075042E06FE675E080915E050E94CF0683E07B
S11307600E946F028FE695E00E94890A80914B05F2
S11307708F5F80934B05089584E00E946F028091FF
S113078047058F5F8093470591E090934B059091C7
S113079067008913B5C08FE092E00E94220D8AE0C1
S11307A00E946F020E943305089586E00E946F0242
S11307B080914B058F5F80934B0508950E948807B5
S11307C080934A05882309F49BC09FEC980F9430CA
S11307D058F480538093460510924A0580914B0546
S11307E08F5F80934B05089585E00E946F0280918E
S11307F04B05815080934B0508952F5F20934B0543
S113080080914605823069F018F4813031F0089502
S1130810833059F0843069F0089587E00E946F02B4
S1130820089588E00E946F02089589E00E946F0293
S113083008950E94A90910924B0581E080936000FD
S113084008950E94880780934A05882309F458C0B4
S11308508053863050F48093450510924A05809168
S11308604B058F5F80934B05089585E00E946F02CE
S113087080914B05815080934B05089580914605E6
S11308808230B1F0833031F18130A9F58091450592
S1130890811104C0225020934B052DC0843020F4D4
S11308A060E00E94070527C0225020934B0523C017
S11308B080914505811104C0225020934B051BC033
S11308C0833020F460E00E94900515C022502093EC
S11308D04B0511C080914505811104C0225020931D
S11308E04B0509C0863020F460E00E94F20A03C080
S11308F0225020934B0580914B05825080934B05E9
S11309000895CF93DF9300D01F92CDB7DEB78091C7
S11309104B0581113EC0909160009923D1F1811162
S113092038C09130B1F510926000809161004AE0C6
S1130930BE016F5F7F4F90E00E94B00E87E392E0AC
S11309400E94890A80914C05811105C08CE392E0D4
S11309500E94890A06C0813021F480E492E00E945A
S1130960890A84E492E00E94890ACE0101960E94D9
S1130970890A8AE492E00E94890A809161008A309F
S113098020F48CE592E00E94890A8DE492E00E94B2
S1130990890A0F900F900F90DF91CF910895809165
S11309A06200813089F4813079F480916100909102
S11309B06500891718F00E94F60408959091640068
S11309C0981710F00E94FF0408950E941F010E94CE
S11309D00C010E94CF040E94ED020E94810408953C
S11309E041E062E080E00E945C0B089541E062E037
S11309F080E00E94CC0B81E080934C05089540E098
S1130A0062E080E00E94CC0B10924C050895CF93D5
S1130A10C62F823059F08330A1F08130E1F4809305
S1130A2062006130C1F40E94DC0D15C010926200B6
S1130A300E94FF04C13079F40E94E10D0E94D20D9E
S1130A400AC0109262000E94F604C13021F40E9490
S1130A50E10D0E94D70DCF91089541E063E080E05D
S1130A600E94CC0B08950E94A40C0E942D05FFCF78
S1130A701F920F920FB60F9211242F933F934F930F
S1130A805F936F937F938F939F93AF93BF93EF93F2
S1130A90FF939091510580914F05981730F441E0F0
S1130AA063E083E00E94CC0B07C0981728F040E075
S1130AB063E083E00E94CC0B809151058F5F8093AB
S1130AC051058D3F10F010925105FF91EF91BF91A8
S1130AD0AF919F918F917F916F915F914F913F91D2
S1130AE02F910F900FBE0F901F90189541E063E077
S1130AF083E00E945C0B0E94A80C0E94BE0C089527
S1130B0080914F058A3F18F48E5C80934F050895B9
S1130B1080914F05823318F0825380934F050895D6
S1130B20CF93C62F823081F018F4813031F021C088
S1130B30833089F08430B9F01CC00E948005C13034
S1130B40C1F40E94E60D15C00E948805C13089F4E5
S1130B500E94EB0D0EC080914F05882351F049F09F
S1130B6010924F0506C080914F05811102C00E946A
S1130B708005CF910895813049F0823071F410924C
S1130B805005613051F40E94F00D089581E0809386
S1130B905005613011F40E94F50D089541E067E0BD
S1130BA083E00E945C0B40E067E083E00E94CC0B92
S1130BB08EB58A608EBD83E08BBD88EE8ABD89B711
S1130BC0806189BF0E94A00C08950E94C20C089500
S1130BD00F931F93CF93DF938C01177012FBCC27D5
S1130BE0C0F9CC0FCC0FCC0F11FB882780F9880FEC
S1130BF0880FC82B812F8170880FC82BC06AD1E061
S1130C00DC0F0E94DC0C88E00E94CE0C813031F5B0
S1130C108C2F0E94EE0C88E10E94CE0C813001F5ED
S1130C20802F0E94EE0C88E20E94CE0C8130D1F419
S1130C300E94DC0C80E10E94CE0C8130A9F48D2F3F
S1130C400E94EE0C80E40E94CE0C813079F480E0A6
S1130C500E94E20CC82F0E94D90C09C0C0E007C052
S1130C60C0E005C0C0E003C0C0E001C0C0E08FE543
S1130C709DE60197F1F700C000008C2FDF91CF9122
S1130C801F910F9108951F93CF93DF93D82F162FA1
S1130C9092FB882780F9282F220F220F220F91FB25
S1130CA0882780F9880F880F822B9170990F982BD1
S1130CB0C92FC06A0E94DC0C88E00E94CE0C8130EF
S1130CC001F58C2F0E94EE0C88E10E94CE0C81303D
S1130CD0C1F48D2F0E94EE0C88E20E94CE0C882372
S1130CE081F0812F0E94EE0C88E20E94CE0C8823B2
S1130CF041F00E94D90C8FE59DE60197F1F700C001
S1130D000000DF91CF911F910895EF92FF920F930E
S1130D101F93CF938C017B01C0E005C0800F911F0E
S1130D200E944306CF5F8C2F90E0F701E80FF91F74
S1130D3060816111F3CF800F911F01960E944306D9
S1130D40CF911F910F91FF90EF900895CF92DF9272
S1130D50EF92FF920F931F93CF936C018B010E942C
S1130D60E805F8018083C0E00CC0CF5F8C2F90E0D1
S1130D707801E80EF91E8C0D9D1D0E94E805F7010F
S1130D808083F801EC0FF11D80818111EECFCF91AA
S1130D901F910F91FF90EF90DF90CF9008958336CD
S1130DA031F024E1829FC00111240A9602C08AE036
S1130DB090E0413019F0423029F0089501960E94E4
S1130DC0A60608950A960E94A6060895833631F071
S1130DD024E1829FC00111240A9602C08AE090E0B7
S1130DE00E94E805089524E1829FC001112460E077
S1130DF00A960E94430608951F93CF93DF93C0E0A1
S1130E00D0E007C01C2F8C2F0E94E606882341F0F7
S1130E1021968091660090E0C817D9079CF310E0F2
S1130E20812FDF91CF911F910895EF92FF920F933D
S1130E301F93CF93DF938B017A0194E1899FE001A3
S1130E401124682FCE010A960E944306B701CE01F1
S1130E500B960E948506B801CE0144960E94850631
S1130E60DF91CF911F910F91FF90EF90089541E092
S1130E7064E081E00E945C0B41E065E081E00E9457
S1130E805C0B41E066E081E00E945C0B41E067E0BE
S1130E9081E00E945C0B40E063E082E00E945C0B16
S1130EA040E064E082E00E945C0B40E065E082E0A8
S1130EB00E945C0B40E066E082E00E945C0B41E033
S1130EC064E081E00E94CC0B41E065E081E00E9497
S1130ED0CC0B41E066E081E00E94CC0B41E067E08E
S1130EE081E00E94CC0B41E063E082E00E94CC0BE5
S1130EF041E064E082E00E94CC0B41E065E082E0E6
S1130F000E94CC0B41E066E082E00E94CC0B089585
S1130F10CF9340E064E081E00E94CC0B41E065E0C7
S1130F2081E00E94CC0B41E066E081E00E94CC0BA2
S1130F3041E067E081E00E94CC0B63E082E00E9424
S1130F40720C811108C063E082E00E94720C882355
S1130F50D1F3C1E32BC064E082E00E94720C8111E2
S1130F6008C064E082E00E94720C8823D1F3C4E3D9
S1130F701DC065E082E00E94720C811108C065E02A
S1130F8082E00E94720C8823D1F3C7E30FC066E0AD
S1130F9082E00E94720C811108C066E082E00E9427
S1130FA0720C8823D1F3CAE201C0C0E041E064E0DE
S1130FB081E00E94CC0B40E065E081E00E94CC0B14
S1130FC041E066E081E00E94CC0B41E067E081E013
S1130FD00E94CC0B63E082E00E94720C811108C075
S1130FE063E082E00E94720C8823D1F3C2E329C03B
S1130FF064E082E00E94720C811108C064E082E027
S11310000E94720C8823D1F3C5E31BC065E082E023
S11310100E94720C811108C065E082E00E94720C8B
S11310208823D1F3C8E30DC066E082E00E94720C0D
S1131030811107C066E082E00E94720C8823D1F31C
S1131040C0E341E064E081E00E94CC0B41E065E054
S113105081E00E94CC0B40E066E081E00E94CC0B72
S113106041E067E081E00E94CC0B63E082E00E94F3
S1131070720C811108C063E082E00E94720C882324
S1131080D1F3C3E329C064E082E00E94720C8111B1
S113109008C064E082E00E94720C8823D1F3C6E3A6
S11310A01BC065E082E00E94720C811108C065E0FB
S11310B082E00E94720C8823D1F3C9E30DC066E07C
S11310C082E00E94720C811107C066E082E00E94F7
S11310D0720C8823D1F3C3E241E064E081E00E9412
S11310E0CC0B41E065E081E00E94CC0B41E066E07E
S11310F081E00E94CC0B40E067E081E00E94CC0BD1
S113110063E082E00E94720C811108C063E082E017
S11311100E94720C8823D1F3C1E429C064E082E008
S11311200E94720C811108C064E082E00E94720C7B
S11311308823D1F3C2E41BC065E082E00E94720CF4
S1131140811108C065E082E00E94720C8823D1F30B
S1131150C3E40DC066E082E00E94720C811107C0F6
S113116066E082E00E94720C8823D1F3C4E48C2FE1
S1131170CF91089541E063E081E00E94CC0B8FEDB4
S11311809EE20197F1F700C0000040E063E081E0D7
S11311900E94CC0B8FED9EE20197F1F700C0000096
S11311A00895CF93C82F40E061E081E00E94CC0B0A
S11311B040E062E081E00E94CC0BC4FB442740F98C
S11311C064E080E00E94CC0BC5FB442740F965E055
S11311D080E00E94CC0BC6FB442740F966E080E027
S11311E00E94CC0B4C2F441F4427441F67E080E02F
S11311F00E94CC0B0E94BA088FE19EE40197F1F79C
S113120000C000004C2F417064E080E00E94CC0BD1
S1131210C1FB442740F965E080E00E94CC0BC2FB8F
S1131220442740F966E080E00E94CC0BC3FB4427CE
S113123040F967E080E00E94CC0B0E94BA088FE17D
S11312409EE40197F1F700C00000CF91089541E0BA
S113125061E081E00E945C0B41E062E081E00E9479
S11312605C0B41E063E081E00E945C0B41E064E0E0
S113127080E00E945C0B41E065E080E00E945C0B32
S113128041E066E080E00E945C0B41E067E080E0C2
S11312900E945C0B2FE785EB91E021508040904049
S11312A0E1F700C0000083E30E94D1088FE39FE1CF
S11312B00197F1F700C0000082E30E94D1088FE398
S11312C09FE10197F1F700C0000088E20E94D10875
S11312D08FE39FE10197F1F700C000008FE00E94C7
S11312E0D1088FE39FE10197F1F700C0000086E089
S11312F00E94D1088FE39FE10197F1F700C000003D
S113130081E00E94D1088FE39FE10197F1F700C0CB
S11313100000109252050895CF93DF93C82FD62F63
S1131320862F90E4C99F800D112480680E94D10803
S1131330C11105C0D03118F4D093520507C0C13093
S113134029F4D03118F4D05FD0935205DF91CF91B6
S1131350089581E00E94D108109252050895CF9318
S1131360C82F811122C0809152058F3020F48F5FE5
S1131370809352051AC08F3041F48F5F80935205D9
S113138060E081E00E948C0910C090EF980F9F30BC
S113139020F48F5F8093520508C08F3131F410928E
S11313A0520560E080E00E948C09C130E9F480912C
S11313B052059FEF980F9F3018F49093520514C074
S11313C0803129F46FE080E00E948C090DC02FEE7B
S11313D0280F2F3018F49093520506C0811104C0D1
S11313E06FE081E00E948C09CF910895CF9390EE35
S11313F0980F9E3508F056C0C82F41E061E081E0A7
S11314000E94CC0B40E062E081E00E94CC0BC4FB64
S1131410442740F964E080E00E94CC0BC5FB4427DC
S113142040F965E080E00E94CC0BC6FB442740F9FC
S113143066E080E00E94CC0B4C2F441F4427441FDD
S113144067E080E00E94CC0B0E94BA088FE19EE422
S11314500197F1F700C000004C2F417064E080E078
S11314600E94CC0BC1FB442740F965E080E00E9458
S1131470CC0BC2FB442740F966E080E00E94CC0B11
S1131480C3FB442740F967E080E00E94CC0B0E9434
S1131490BA088FE19EE40197F1F700C0000080E0F4
S11314A00E94AF09CF910895CF93C82F81110BC02B
S11314B0809152058F3138F484E10E94D1088C2F39
S11314C00E94AF0908C0C13031F480E10E94D10804
S11314D08C2F0E94AF09CF91089581E00E94540A95
S11314E08FE39FE10197F1F700C0000080E20E94C2
S11314F0F6098FE39FE10197F1F700C0000081E056
S11315000E94540A8FE39FE10197F1F700C00000A5
S113151008950F931F93CF938C01C0E003C00E94E2
S1131520F609CF5FF801EC0FF11D80818111F7CF2F
S1131530CF911F910F91089541E062E082E00E94F3
S11315405C0B41E067E082E00E945C0B41E060E0FC
S113155080E00E945C0B41E065E083E00E945C0B4C
S113156041E064E083E00E945C0B089540E062E0A7
S113157082E00E94CC0B089540E067E082E00E9484
S1131580CC0B089540E060E080E00E94CC0B08950D
S113159040E065E083E00E94CC0B089540E064E005
S11315A083E00E94CC0B089542E062E082E00E9456
S11315B0CC0B089542E067E082E00E94CC0B0895D2
S11315C042E060E080E00E94CC0B089542E065E0D8
S11315D083E00E94CC0B089542E064E083E00E9423
S11315E0CC0B0895CF93DF93C82FD62F833089F087
S11315F028F4813041F0823049F013C0843061F026
S1131600853069F00EC00E94D40A0BC00E94DA0A29
S113161008C00E94E00A05C00E94E60A02C00E94B7
S1131620EC0AD13061F48EE592E00E94220D8FE243
S11316308C0F0E941E0D83E692E00E94220DDF9122
S1131640CF9108950E94EB000E94E504FDCF86B17E
S1131650806886B9089586B18F7786B9089586B172
S1131660806486B908953699FECF089587B1806461
S113167087B987B18F7787B987B1806287B986B117
S11316808E7F86B986B18D7F86B986B1846086B92E
S11316900895CF93C82F0E942B0B87B1807E87B902
S11316A087B1C82BC7B90E94270B0E942F0B0E9439
S11316B0330B85B1CF9108954130A1F5813089F084
S11316C028F08230C9F0833011F108952AB381E003
S11316D090E002C0880F991F6A95E2F7822B8ABBBB
S11316E0089527B381E090E002C0880F991F6A959E
S11316F0E2F7822B87BB089524B381E090E002C017
S1131700880F991F6A95E2F7822B84BB089521B351
S113171081E090E002C0880F991F6A95E2F7822B5E
S113172081BB0895411137C0813091F028F0823097
S1131730D9F0833029F108952AB381E090E002C002
S1131740880F991F6A95E2F7809582238ABB0895D2
S113175027B381E090E002C0880F991F6A95E2F7F1
S11317608095822387BB089524B381E090E002C072
S1131770880F991F6A95E2F78095822384BB0895A8
S113178021B381E090E002C0880F991F6A95E2F7C7
S11317908095822381BB08954130A1F5813089F081
S11317A028F08230C9F0833011F108952BB381E021
S11317B090E002C0880F991F6A95E2F7822B8BBBD9
S11317C0089528B381E090E002C0880F991F6A95BC
S11317D0E2F7822B88BB089525B381E090E002C034
S11317E0880F991F6A95E2F7822B85BB089522B36F
S11317F081E090E002C0880F991F6A95E2F7822B7E
S113180082BB0895411138C0813091F028F08230B4
S1131810D9F0833029F108952BB381E090E002C020
S1131820880F991F6A95E2F7809582238BBB0895F0
S113183028B381E090E002C0880F991F6A95E2F70F
S11318408095822388BB089525B381E090E002C08F
S1131850880F991F6A95E2F78095822385BB0895C6
S113186022B381E090E002C0880F991F6A95E2F7E5
S11318708095822382BB0895423099F5813089F0A6
S113188028F08230C9F0833011F108952BB381E040
S113189090E002C0880F991F6A95E2F782278BBBFC
S11318A0089528B381E090E002C0880F991F6A95DB
S11318B0E2F7822788BB089525B381E090E002C057
S11318C0880F991F6A95E2F7822785BB089522B392
S11318D081E090E002C0880F991F6A95E2F78227A1
S11318E082BB0895813079F028F08230A9F08330EA
S11318F0E1F024C089B390E002C0959587956A957C
S1131900E2F78170089586B390E002C095958795BB
S11319106A95E2F78170089583B390E002C09595CB
S113192087956A95E2F78170089580B390E002C0CC
S1131930959587956A95E2F78170089580E00895FA
S11319408FB780688FBF08958FB78F778FBF089543
S113195083B78F7B83BF83B7877F83BF83B78B7F37
S113196083BF83B78D7F83BF83B7816083BF83B712
S11319708F7D83BF83B78F7E83BF089589B78160CE
S113198089BF08958AE080B981B1816081B981B14C
S11319908D7F81B986B7846086BF089521B190E0B8
S11319A0287F30E08217930711F481E0089580E0E6
S11319B0089584E986BF089584EA86BF06B607FEC3
S11319C0FDCF0895813019F486B7806486BF84E81A
S11319D086BF06B607FEFDCF83B1089583B984E8B8
S11319E086BF06B607FEFDCF08958AB180688AB91E
S11319F008958AB18B7F8AB980B5846080BD80B533
S1131A00826080BD80B58F7B80BD80B5806880BDDD
S1131A1080B58F7D80BD80B58F7E80BD80B5877F8A
S1131A2080BD10BC87E689B98AB180618AB98AB160
S1131A3088608AB98AB180688AB908955D9BFECFAF
S1131A408CB908950F931F93CF938C01C0E003C00A
S1131A500E941E0DCF5FF801EC0FF11D80818111F2
S1131A60F7CFCF911F910F9108955F9BFECF8CB15B
S1131A700895EF92FF921F93CF93DF937C0110E0C0
S1131A80E701C10FD11D0E94350D88838D3009F403
S1131A90188288818A3011F4188202C01F5FF0CF47
S1131AA0DF91CF911F91FF90EF9008958FE692E020
S1131AB00E94220D089585E892E00E94220D089567
S1131AC087E992E00E94220D089582EB92E00E9441
S1131AD0220D83EC92E00E94220D85ED92E00E949B
S1131AE0220D86EE92E00E94220D89EF92E00E9480
S1131AF0220D8EE093E00E94220D84E293E00E9486
S1131B00220D8AE393E00E94220D08958CE493E071
S1131B100E94220D8FE593E00E94220D82E793E05C
S1131B200E94220D85E893E00E94220D88E993E04B
S1131B300E94220D8BEA93E00E94220D089586EB09
S1131B4093E00E94220D84EC93E00E94220D8DED1F
S1131B5093E00E94220D8BEA93E00E94220D0895E7
S1131B6086EF93E00E94220D8BE094E00E94220D08
S1131B708BEA93E00E94220D089581E294E00E9492
S1131B80220D81E394E00E94220D83E494E00E94FC
S1131B90220D84E594E00E94220D8BEA93E00E94DA
S1131BA0220D089584E694E00E94220D08958CE6A7
S1131BB094E00E94220D089583E794E00E94220D90
S1131BC008958CE794E00E94220D089587E894E03C
S1131BD00E94220D089582E994E00E94220D089546
S1131BE08FE994E00E94220D08958AEA94E00E940D
S1131BF0220D08951F93CF93DF93CDB7DEB72897B7
S1131C000FB6F894DEBF0FBECDBF11E021C0812F07
S1131C100E94E6068823D9F084EB94E00E94220D0A
S1131C2080E3810F0E941E0D8EEF90E00E94220D32
S1131C3042E0BE016F5F7F4F812F0E94CF06CE012D
S1131C4001960E94220D84EF93E00E94220D1F5FF3
S1131C50809166001817D8F228960FB6F894DEBF64
S1131C600FBECDBFDF91CF911F9108958DEB94E00E
S1131C700E94220D089588ED94E00E94220D08959B
S1131C8086EF94E00E94220D089584E195E00E947D
S1131C90220D0E94560D089590E0FC013197E83022
S1131CA0F105D8F4E05CFF4F0C947C0E0E94860D85
S1131CB008950E949F0D08950E94B00D08950E94FA
S1131CC0BD0D08950E94FA0D08950E943B0E0895DB
S1131CD00E94360E08950E94450E08958AE295E00A
S1131CE00E94220D80914E05805D0E941E0D83EF9F
S1131CF093E00E94220D0895EE0FFF1F0590F491CA
S1131D00E02D0994FC0188279927E8942191203239
S1131D10E9F3293010F02E30C8F32B3241F02D3284
S1131D2039F4689404C00E94BB0E820F911D219166
S1131D3020532A30C0F31EF4909581959F4F089547
S1131D40FB01DC018D91019080190110D9F3990BED
S1131D500895FB01DC0101900D920020E1F7089544
S1131D60BB274A3031F4992322F4BDE29095819542
S1131D709F4F0C94C40E7AE0979F902D879F802DDF
S1131D80910D11240895BB27FB015527AA27880F1D
S1131D90991FAA1FA41710F0A41B83955051B9F7DB
S1131DA0A05DAA3308F0A95DA193009779F7B1115A
S1131DB0B1931192CB010C94DD0EDC01FC01672F71
S1131DC071917723E1F7329704C07C916D9370830E
S1111DD06291AE17BF07C8F30895F894FFCFD1
S1131DDE011D0101151C050357656C636F6D6520AC
S1131DEE4261636B212000417574682044656E69FD
S1131DFE65642C204F6E6C792041646D696E2046AB
S1131E0E756E6374696F6E21200A005573657220B6
S1131E1E44656C657465642053756363657373669A
S1131E2E756C6C79005573657220446F6573206E02
S1131E3E6F7420457869737421004E65772055734D
S1131E4E6572205265676973746572656420537593
S1131E5E6363657373210A004E657720557365724B
S1131E6E2049443A20004E657720557365722055FB
S1131E7E7365726E616D653A2000456E74657220ED
S1131E8E5573657249443A20202000456E7465727C
S1131E9E2050617373776F72643A200057656C63D8
S1131EAE6F6D65204261636B2120202000417574A3
S1131EBE68204661696C6564212020202000496EEB
S1131ECE76616C69642053656C6563746564005453
S1131EDE727920416761696E202020202020200025
S1131EEE2831294143202028322944696D6D6572B9
S1131EFE002833294C6564202834294C6F676F758C
S1131F0E740041432831294175746F202832294FBA
S1131F1E66660041432833294F4E202830294261FA
S1131F2E636B200044696D6D65722048696768654E
S1131F3E72283129002832294C6F77657220283097
S1131F4E294261636B004C6564204E6F2E28312943
S1131F5E28322928332900283429283529202020FD
S1131F6E2830294261636B0053797374656D204C7C
S1131F7E6F636B656420202000446F6E6521000A38
S1131F8E4B4559504144204C6F67696E2046616938
S1131F9E6C65642C200A53797374656D204C6F63E1
S1131FAE6B656421200A004143284F0046462900F0
S1131FBE4E29200054656D702800632900283029AD
S1131FCE204D6F72652020202020202020004C659B
S1131FDE642000546F67676C656400256C7500207F
S1131FEE456E746572205573657249443A28317E84
S1131FFE3939290A0020456E746572205061737355
S113200E776F72643A0A00496E76616C696420696E
S113201E6E707574202074727920416761696E2028
S113202E0A0043686F6F7365204F7074696F6E3A60
S113203E200A0028312920436F6E74726F6C204C75
S113204E6564200A0028322920436F6E74726F6C07
S113205E204143200A0028332920436F6E74726F87
S113206E6C20446F6F72200A0028342920436F6E4F
S113207E74726F6C2044696D6D6572200A00283588
S113208E292053686F77205573657273206C6973BA
S113209E74200A0028362920437265617465204E27
S11320AE65772055736572200A0028372920446508
S11320BE6C6574652055736572200A0028312920D9
S11320CE546F67676C65204C65642031200A0028C4
S11320DE322920546F67676C65204C65642032206A
S11320EE0A0028332920546F67676C65204C656499
S11320FE2033200A0028342920546F67676C65202A
S113210E4C65642034200A0028352920546F6767F3
S113211E6C65204C65642035200A00283029204245
S113212E61636B200A0028312920414320417574D4
S113213E6F200A00283229204143204D616E7561BB
S113214E6C205475726E204F6666200A002833295F
S113215E204143204D616E75616C205475726E2062
S113216E4F6E20200A00283129204F70656E2044BE
S113217E6F6F72204C6F636B200A00283229204344
S113218E6C6F736520446F6F72204C6F636B200A03
S113219E002831292044696D6D6572205570200A1E
S11321AE002832292044696D6D657220446F776E64
S11321BE200A002833292044696D6D6572204F660C
S11321CE66200A002834292044696D6D6572204FFB
S11321DE6E200A004143204F66660A004143204F99
S11321EE6E0A004143204175746F0A004143204D2D
S11321FE616E75616C0A0044696D6D65722055706F
S113220E0A0044696D6D657220446F776E0A00444E
S113221E6F6F7220436C6F736500446F6F72204F43
S113222E70656E005573657249443A2000456E74AC
S113223E65722055736572494420546F2044656C51
S113224E657465203A200A00456E746572205468E0
S113225E65204E65775573657220557365726E6190
S113226E6D653A200A00456E7465722054686520C7
S113227E4E6577557365722050617373776F726410
S113228E3A200A004C6F67676564206F66662053B8
S113229E75636365737321200A004C6F67696E2042
S11322AE4661696C65642C2054727920616761699A
S10722BE6E21200069
S9030000FC
