S0160000536D6172745F486F6D655F4436362E7372656310
S11300000C9439000C9456000C9456000C94560031
S11300100C9456000C9456000C9456000C948F01CA
S11300200C9456000C9456000C9456000C94C20088
S11300300C9456000C94AB080C9456000C94560087
S11300400C9456000C9456000C9456000C945600D4
S11300500C9456000B0713074B0753078B07CE0767
S1130060DA07F50CF80CFB0CFE0C010D040D070D62
S11300700A0D11241FBECFE5D8E0DEBFCDBF16E0C8
S1130080A0E6B0E0E2EBFAE102C005900D92A635DD
S1130090B107D9F726E0A6E5B6E001C01D92A13B61
S11300A0B207E1F70E941C0A0C94570D0C9400004F
S11300B041E062E080E00E94230A089541E062E0AA
S11300C080E00E94930A089540E062E080E00E948C
S11300D0930A08958230C9F0833071F1813009F0B8
S11300E043C080915706882319F0813049F0089560
S11300F081E08093570682E790E00E94E90B08951F
S113010083E890E00E94E90B0895809156068823C5
S113011019F0813031F0089587E990E00E94E90BED
S113012008950E94640010925606109257068DEAB4
S113013090E00E94E90B089580915606882319F0F7
S1130140813069F008950E945E0081E08093560634
S11301501092570684EC90E00E94E90B08958AED12
S113016090E00E94E90B08950E94270C089541E055
S113017063E080E00E94930A08950E946B0B0E9442
S1130180B700FFCF1F920F920FB60F9211242F9337
S11301903F934F935F936F937F938F939F93AF930B
S11301A0BF93EF93FF93909158068091730698172D
S11301B030F441E063E083E00E94930A07C098179B
S11301C028F040E063E083E00E94930A809158069F
S11301D08F5F809358068E3F10F010925806FF915F
S11301E0EF91BF91AF919F918F917F916F915F91AB
S11301F04F913F912F910F900FBE0F901F90189524
S113020041E063E083E00E94230A0E946F0B0E9496
S1130210850B08958230E9F018F4813031F00895A7
S1130220833051F18430D1F10895809173068A3F6F
S113023029F480EF90E00E94E90B08958A3F08F0CA
S11302403FC08E5C809373068DEF90E00E94E90BB3
S1130250089580917306811105C08FE091E00E949A
S1130260E90B0895882361F18253809373068CE12E
S113027091E00E94E90B089580917306811105C0F5
S11302808EE291E00E94E90B08958823C9F0109250
S113029073068BE391E00E94E90B08958091730645
S11302A0811108C08E5C809373068DE491E00E94F6
S11302B0E90B0895882321F08EE591E00E94E90B73
S11302C008951092730608958130A9F0823031F5B3
S11302D080917406882319F0813031F008958AE6FC
S11302E091E00E94E90B08951092740682E891E06F
S11302F00E94E90B089580917406882319F08130D7
S113030049F0089581E08093740687E991E00E94A2
S1130310E90B08958CEA91E00E94E90B08951F927D
S11303200F920FB60F9211242F933F934F935F9325
S11303306F937F938F939F93AF93BF93EF93FF93A9
S113034080915906811106C041E067E083E00E9474
S1130350930A17C0813051F480917406811111C041
S113036040E067E083E00E94930A0BC0853049F4C3
S113037080917406813029F440E067E083E00E94B4
S1130380930A80915906883220F48F5F809359062E
S113039002C010925906FF91EF91BF91AF919F91C6
S11303A08F917F916F915F914F913F912F910F901A
S11303B00FBE0F901F90189541E067E083E00E9404
S11303C0230A40E067E083E00E94930A8EB58A60C6
S11303D08EBD83E08BBD88EE8ABD89B7806189BFFD
S11303E00E94670B08950E94890B08950F931F9331
S11303F0CF93DF938C01177012FBCC27C0F9CC0F7D
S1130400CC0FCC0F11FB882780F9880F880FC82BDD
S1130410812F8170880FC82BC06AD1E0DC0F0E9445
S1130420A30B88E00E94950B813031F58C2F0E943C
S1130430B50B88E10E94950B813001F5802F0E9455
S1130440B50B88E20E94950B8130D1F40E94A30B76
S113045080E10E94950B8130A9F48D2F0E94B50B89
S113046080E40E94950B813079F480E00E94A90B0E
S1130470C82F0E94A00B09C0C0E007C0C0E005C09F
S1130480C0E003C0C0E001C0C0E08FE59DE6019775
S1130490F1F700C000008C2FDF91CF911F910F91D5
S11304A008951F93CF93DF93D82F162F92FB88279D
S11304B080F9282F220F220F220F91FB882780F921
S11304C0880F880F822B9170990F982BC92FC06ABF
S11304D00E94A30B88E00E94950B813001F58C2FBC
S11304E00E94B50B88E10E94950B8130C1F48D2FD9
S11304F00E94B50B88E20E94950B882381F0812F1E
S11305000E94B50B88E20E94950B882341F00E945B
S1130510A00B8FE59DE60197F1F700C00000DF9185
S1130520CF911F910895EF92FF920F931F93CF9352
S11305308C017B01C0E005C0800F911F0E94510215
S1130540CF5F8C2F90E0F701E80FF91F60816111F4
S1130550F3CF800F911F01960E945102CF911F91FA
S11305600F91FF90EF900895CF92DF92EF92FF9258
S11305700F931F93CF936C018B010E94F601F80136
S11305808083C0E00CC0CF5F8C2F90E07801E80E30
S1130590F91E8C0D9D1D0E94F601F7018083F80160
S11305A0EC0FF11D80818111EECFCF911F910F913E
S11305B0FF90EF90DF90CF900895833631F024E1DF
S11305C0829FC00111240A9602C08AE090E0413063
S11305D019F0423029F0089501960E94B40208955A
S11305E00A960E94B4020895833631F024E1829F72
S11305F0C00111240A9602C08AE090E00E94F6012C
S1130600089524E1829FC001112460E00A960E94AB
S1130610510208951F93CF93DF93C0E0D0E007C049
S11306201C2F8C2F0E94F402882341F02196809184
S1130630CA0390E0C817D9079CF310E0812FDF911B
S1130640CF911F910895EF92FF920F931F93CF9331
S1130650DF938B017A0194E1899FE0011124682FD3
S1130660CE010A960E945102B701CE010B960E9458
S11306709302B801CE0144960E949302DF91CF9178
S11306801F910F91FF90EF90089541E064E081E0A5
S11306900E94230A41E065E081E00E94230A41E0D0
S11306A066E081E00E94230A41E067E081E00E9465
S11306B0230A40E063E082E00E94230A40E064E011
S11306C082E00E94230A40E065E082E00E94230A5F
S11306D040E066E082E00E94230A41E064E081E0B9
S11306E00E94930A41E065E081E00E94930A41E0A0
S11306F066E081E00E94930A41E067E081E00E94A5
S1130700930A41E063E082E00E94930A41E064E0DE
S113071082E00E94930A41E065E082E00E94930A2D
S113072041E066E082E00E94930A0895CF9340E09E
S113073064E081E00E94930A41E065E081E00E9468
S1130740930A41E066E081E00E94930A41E067E099
S113075081E00E94930A63E082E00E94390B8111D8
S113076008C063E082E00E94390B8823D1F3C1E31F
S11307702BC064E082E00E94390B811108C064E060
S113078082E00E94390B8823D1F3C4E31DC065E0E5
S113079082E00E94390B811108C065E082E00E946A
S11307A0390B8823D1F3C7E30FC066E082E00E94CF
S11307B0390B811108C066E082E00E94390B88235E
S11307C0D1F3CAE201C0C0E041E064E081E00E94EC
S11307D0930A40E065E081E00E94930A41E066E00C
S11307E081E00E94930A41E067E081E00E94930A5D
S11307F063E082E00E94390B811108C063E082E06B
S11308000E94390B8823D1F3C2E329C064E082E05B
S11308100E94390B811108C064E082E00E94390B08
S11308208823D1F3C5E31BC065E082E00E94390B45
S1130830811108C065E082E00E94390B8823D1F35E
S1130840C8E30DC066E082E00E94390B811107C045
S113085066E082E00E94390B8823D1F3C0E341E0D3
S113086064E081E00E94930A41E065E081E00E9437
S1130870930A40E066E081E00E94930A41E067E069
S113088081E00E94930A63E082E00E94390B8111A7
S113089008C063E082E00E94390B8823D1F3C3E3EC
S11308A029C064E082E00E94390B811108C064E031
S11308B082E00E94390B8823D1F3C6E31BC065E0B4
S11308C082E00E94390B811108C065E082E00E9439
S11308D0390B8823D1F3C9E30DC066E082E00E949E
S11308E0390B811107C066E082E00E94390B88232E
S11308F0D1F3C3E241E064E081E00E94930A41E065
S113090065E081E00E94930A41E066E081E00E9494
S1130910930A40E067E081E00E94930A63E082E08A
S11309200E94390B811108C063E082E00E94390BF8
S11309308823D1F3C1E429C064E082E00E94390B2A
S1130940811108C064E082E00E94390B8823D1F34E
S1130950C2E41BC065E082E00E94390B811108C02B
S113096065E082E00E94390B8823D1F3C3E40DC013
S113097066E082E00E94390B811107C066E082E0E4
S11309800E94390B8823D1F3C4E48C2FCF910895AE
S113099041E063E081E00E94930A8FED9EE20197BB
S11309A0F1F700C0000040E063E081E00E94930A98
S11309B08FED9EE20197F1F700C000000895CF93F8
S11309C0C82F40E061E081E00E94930A40E062E0C9
S11309D081E00E94930AC4FB442740F964E080E06C
S11309E00E94930AC5FB442740F965E080E00E9419
S11309F0930AC6FB442740F966E080E00E94930A0C
S1130A004C2F441F4427441F67E080E00E94930A50
S1130A100E94C8048FE19EE40197F1F700C0000032
S1130A204C2F417064E080E00E94930AC1FB44278C
S1130A3040F965E080E00E94930AC2FB442740F934
S1130A4066E080E00E94930AC3FB442740F967E014
S1130A5080E00E94930A0E94C8048FE19EE40197FB
S1130A60F1F700C00000CF91089541E061E081E01A
S1130A700E94230A41E062E081E00E94230A41E0EF
S1130A8063E081E00E94230A41E064E080E00E9488
S1130A90230A41E065E080E00E94230A41E066E029
S1130AA080E00E94230A41E067E080E00E94230A7C
S1130AB02FE785EB91E0215080409040E1F700C0A2
S1130AC0000083E30E94DF048FE39FE10197F1F7C5
S1130AD000C0000082E30E94DF048FE39FE10197DE
S1130AE0F1F700C0000088E20E94DF048FE39FE179
S1130AF00197F1F700C000008FE00E94DF048FE34C
S1130B009FE10197F1F700C0000086E00E94DF0436
S1130B108FE39FE10197F1F700C0000081E00E949C
S1130B20DF048FE39FE10197F1F700C0000010920A
S1130B305A060895CF93DF93C82FD62F862F90E4BB
S1130B40C99F800D112480680E94DF04C11105C073
S1130B50D03118F4D0935A0607C0C13029F4D031EB
S1130B6018F4D05FD0935A06DF91CF91089581E0B5
S1130B700E94DF048FE39FE10197F1F700C00000BA
S1130B8010925A060895CF93C82F811122C08091E4
S1130B905A068F3020F48F5F80935A061AC08F3024
S1130BA041F48F5F80935A0660E081E00E949A05C9
S1130BB010C090EF980F9F3020F48F5F80935A06F7
S1130BC008C08F3131F410925A0660E080E00E9430
S1130BD09A05C130E9F480915A069FEF980F9F302F
S1130BE018F490935A0614C0803129F46FE080E021
S1130BF00E949A050DC02FEE280F2F3018F4909301
S1130C005A0606C0811104C06FE081E00E949A0573
S1130C10CF910895CF9390EE980F9E3508F056C06B
S1130C20C82F41E061E081E00E94930A40E062E065
S1130C3081E00E94930AC4FB442740F964E080E009
S1130C400E94930AC5FB442740F965E080E00E94B6
S1130C50930AC6FB442740F966E080E00E94930AA9
S1130C604C2F441F4427441F67E080E00E94930AEE
S1130C700E94C8048FE19EE40197F1F700C00000D0
S1130C804C2F417064E080E00E94930AC1FB44272A
S1130C9040F965E080E00E94930AC2FB442740F9D2
S1130CA066E080E00E94930AC3FB442740F967E0B2
S1130CB080E00E94930A0E94C8048FE19EE4019799
S1130CC0F1F700C0000080E00E94C305CF910895B1
S1130CD0CF93C82F81110BC080915A068F3138F4FD
S1130CE084E10E94DF048C2F0E94C30508C0C13038
S1130CF031F480E10E94DF048C2F0E94C305CF9160
S1130D00089581E00E9468068FE39FE10197F1F75F
S1130D1000C0000080E20E940A068FE39FE1019771
S1130D20F1F700C0000081E00E9468068FE39FE1B4
S1130D300197F1F700C0000008950F931F93CF931C
S1130D408C01C0E009C00E940A06CF5F8FE39CE9D2
S1130D500197F1F700C00000F801EC0FF11D80814C
S1130D608111F1CF8FE19EE40197F1F700C00000FB
S1130D70CF911F910F9108950E94B70584EC91E0E3
S1130D800E949D0608950E94B70585ED91E00E949A
S1130D909D0608950E94B70586EE91E00E949D0687
S1130DA008950E94B70587EF91E00E949D0688E0B0
S1130DB092E00E949D0608950E94B70589E192E0A1
S1130DC00E949D0688E092E00E949D0608950E947C
S1130DD0B7058AE292E00E949D068BE392E00E94AE
S1130DE09D0608950E94B70587EF91E00E949D0635
S1130DF082EB92E00E949D060895E09160008E2FA0
S1130E0090E0FC013197E730F10508F0F6C0E65DAB
S1130E10FF4F0C941B0D0E94BC06809160008F5FF5
S1130E208093600008950E94960380935F06882350
S1130E3009F4E3C090ED980F9A3078F40E940A0602
S1130E4080915E06E82FF0E0E958F94F90915F0633
S1130E5090838F5F80935E061BC08A3289F49091E1
S1130E605E06992369F00E94810680915E06E82F50
S1130E70F0E0E958F94F1082815080935E0608C073
S1130E808154843028F4809160008F5F80936000E7
S1130E9010925F0608950E94C306809160008F5FE0
S1130EA08093600008950E94960380935F068823D0
S1130EB009F4A3C090ED980F9A3078F40E940A06C2
S1130EC080915D06E82FF0E0E756F94F90915F06B8
S1130ED090838F5F80935D061BC08A3289F4909162
S1130EE05D06992369F00E94810680915D06E82FD2
S1130EF0F0E0E756F94F1082815080935D0608C0F8
S1130F008154843028F4809160008F5F8093600066
S1130F1010925F06089587E796E00E94210D809362
S1130F2075060E94F402882339F041E069EA76E00C
S1130F30809175060E94DD0269EA76E089E996E00F
S1130F400E943F0D892B99F442E06FE776E080918F
S1130F5075060E94DD020E94CA068FE796E00E9491
S1130F609D06809160008F5F8093600008950E94C9
S1130F70D10680915C068F5F80935C069091CB03D1
S1130F80891308C083EC92E00E94E90B0E94F206E8
S1130F900E94BD0081E08093600008952FEF83EDEF
S1130FA090E3215080409040E1F700C000000E948F
S1130FB0E70608950E94960380935F068823E9F06C
S1130FC08053853050F480935B0610925F068091C5
S1130FD060008F5F8093600008950E94DC062FEF0D
S1130FE083ED90E3215080409040E1F700C0000081
S1130FF080916000815080936000089541E062E038
S113100082E00E94230A41E067E082E00E94230A12
S113101041E063E083E00E94230A41E065E083E06D
S11310200E94230A41E064E083E00E94230A41E035
S113103060E080E00E94230A089540E062E082E0DC
S11310400E94930A089540E067E082E00E94930AB8
S1131050089540E063E083E00E94930A089540E02D
S113106065E083E00E94930A089540E064E083E031
S11310700E94930A089542E062E082E00E94930A8B
S1131080089542E067E082E00E94930A089542E0F6
S113109063E083E00E94930A089542E065E083E000
S11310A00E94930A089542E064E083E00E94930A58
S11310B00895CF93833099F028F4813041F0823041
S11310C051F019C0843079F0853089F014C00E9441
S11310D03B08C0E011C00E944108C1E00DC00E945D
S11310E04708C2E009C00E944D08C3E005C00E9441
S11310F05308C4E001C0C0E08EE093E00E94E90B15
S11311008C2F90E00E94E50B83E193E00E94E90BB1
S1131110CF9108950E94FE070E9423080E94290887
S11311200E942F080E9435080E941D080E94350560
S11311300E9445030E9458000E94DC010E940001A5
S11311400E9461010E94F3010E94C00B0E94BC0B2B
S11311500E94670B08951F920F920FB60F921124ED
S11311602F933F934F935F936F937F938F939F93AB
S1131170AF93BF93EF93FF9388E896E00E94000C2F
S113118081E080937106FF91EF91BF91AF919F91A0
S11311908F917F916F915F914F913F912F910F901C
S11311A00FBE0F901F901895809171008F5F8093F0
S11311B07100089580917106813009F03CC110924C
S11311C07106809171008330F9F028F4813061F068
S11311D0823079F00895853009F488C008F45EC03F
S11311E0863009F4F6C008950E941D0C0E94D408AC
S11311F0089568E876E089E696E00E94480D0E942A
S1131200220C0E94D408089568E876E080E696E00F
S11312100E94480D89E696E00E94210D809368069D
S11312200E94F402882371F042E069E670E0809144
S113123068060E94DD0241E061E670E08091680684
S11312400E94DD0260E676E081E690E00E943F0DB8
S1131250892B89F488E293E00E94E90B89E690E007
S11312600E94E90B85E595E00E94E90B0E942C0C95
S11312700E94D4080895809172068F5F809372064D
S1131280833030F083EC92E00E94E90B0E94BD00B1
S11312900E940D0D81E080937100089588E896E026
S11312A00E94210D809376069AEF980F933010F0E8
S11312B0833049F490916806933629F087E393E0EC
S11312C00E94E90B08950E94EB0C8091760685300C
S11312D031F0809171008F5F8093710008958830A0
S11312E009F0A9C082E080937100089588E896E02F
S11312F00E94210D80939006909176062AEF290F83
S1131300223098F0893038F00E94270C80917606BC
S11313100E94EB0C0895811108C00E942C0C80914E
S1131320710081508093710008959330F1F028F496
S1131330913059F0923089F00895963039F1973010
S113134099F1943009F077C019C0863018F40E94DE
S1131350590808950E94270C0895843018F40E94B7
S11313606A0008950E94270C0895833020F490E0C9
S11313700E94640108950E94270C0895833018F494
S11313800E940A0108950E94270C089568E876E0F7
S113139081E996E00E94480D0E94DF0C8091710063
S11313A08F5F8093710008950E94F402882349F0AE
S11313B0809190060E9401038BE593E00E94E90B63
S11313C004C085E793E00E94E90B81E080937100FB
S11313D0089568E876E081EA96E00E94480D0E944C
S11313E00A0380938706882331F041EA56E061E9D5
S11313F076E00E9423038AE893E00E94E90B88EADE
S113140093E00E94E90B80918706805D0E94E50BC2
S113141085E595E00E94E90B86EB93E00E94E90BD9
S113142081E996E00E94E90B85E595E00E94E90BCD
S113143081E08093710008950E948A080E94DA086E
S11314400E94FD06FBCF4130A1F5813089F028F0E0
S11314508230C9F0833011F108952AB381E090E01D
S113146002C0880F991F6A95E2F7822B8ABB089500
S113147027B381E090E002C0880F991F6A95E2F7D4
S1131480822B87BB089524B381E090E002C0880FCB
S1131490991F6A95E2F7822B84BB089521B381E0FA
S11314A090E002C0880F991F6A95E2F7822B81BBF6
S11314B00895411137C0813091F028F08230D9F07D
S11314C0833029F108952AB381E090E002C0880FA7
S11314D0991F6A95E2F7809582238ABB089527B302
S11314E081E090E002C0880F991F6A95E2F7809529
S11314F0822387BB089524B381E090E002C0880F63
S1131500991F6A95E2F78095822384BB089521B3DD
S113151081E090E002C0880F991F6A95E2F78095F8
S1131520822381BB08954130A1F5813089F028F0F0
S11315308230C9F0833011F108952BB381E090E03B
S113154002C0880F991F6A95E2F7822B8BBB08951E
S113155028B381E090E002C0880F991F6A95E2F7F2
S1131560822B88BB089525B381E090E002C0880FE8
S1131570991F6A95E2F7822B85BB089522B381E017
S113158090E002C0880F991F6A95E2F7822B82BB14
S11315900895411138C0813091F028F08230D9F09B
S11315A0833029F108952BB381E090E002C0880FC5
S11315B0991F6A95E2F7809582238BBB089528B31F
S11315C081E090E002C0880F991F6A95E2F7809548
S11315D0822388BB089525B381E090E002C0880F80
S11315E0991F6A95E2F78095822385BB089522B3FB
S11315F081E090E002C0880F991F6A95E2F7809518
S1131600822382BB0895423099F5813089F028F015
S11316108230C9F0833011F108952BB381E090E05A
S113162002C0880F991F6A95E2F782278BBB089541
S113163028B381E090E002C0880F991F6A95E2F711
S1131640822788BB089525B381E090E002C0880F0B
S1131650991F6A95E2F7822785BB089522B381E03A
S113166090E002C0880F991F6A95E2F7822782BB37
S11316700895813079F028F08230A9F08330E1F0C8
S113168024C089B390E002C0959587956A95E2F7E6
S11316908170089586B390E002C0959587956A9508
S11316A0E2F78170089583B390E002C09595879521
S11316B06A95E2F78170089580B390E002C0959531
S11316C087956A95E2F78170089580E008958FB751
S11316D080688FBF08958FB78F778FBF089583B7C2
S11316E08F7B83BF83B7877F83BF83B78B7F83BFA2
S11316F083B78D7F83BF83B7816083BF83B78F7DBB
S113170083BF83B78F7E83BF089589B7816089BF04
S113171008958AE080B981B1816081B981B18D7FFA
S113172081B986B7846086BF089521B190E0287F8F
S113173030E08217930711F481E0089580E0089562
S113174084E986BF089584EA86BF06B607FEFDCF06
S11317500895813019F486B7806486BF84E886BF13
S113176006B607FEFDCF83B1089583B984E886BF2A
S113177006B607FEFDCF08958AB180688AB9089538
S11317808AB18B7F8AB980B5846080BD80B5826060
S113179080BD80B58F7B80BD80B5806880BD80B5FD
S11317A08F7D80BD80B58F7E80BD80B5877F80BDF5
S11317B010BC87E689B98AB180618AB98AB1886028
S11317C08AB98AB180688AB908955D9BFECF8CB9C5
S11317D008950F931F93CF938C01C0E003C00E9420
S11317E0E50BCF5FF801EC0FF11D80818111F7CF7C
S11317F0CF911F910F9108955F9BFECF8CB10895F7
S1131800EF92FF921F93CF93DF937C0110E0E701E7
S1131810C10FD11D0E94FC0B88838D3009F41882FE
S113182088818A3011F4188202C01F5FF0CFDF91E3
S1131830CF911F91FF90EF90089580ED93E00E9467
S1131840E90B089586EE93E00E94E90B089588EF72
S113185093E00E94E90B089583E194E00E94E90B70
S113186084E294E00E94E90B86E394E00E94E90B91
S113187087E494E00E94E90B8AE594E00E94E90B76
S11318808FE694E00E94E90B85E894E00E94E90B5E
S11318908BE994E00E94E90B08958DEA94E00E949C
S11318A0E90B80EC94E00E94E90B83ED94E00E9444
S11318B0E90B86EE94E00E94E90B89EF94E00E9424
S11318C0E90B8CE095E00E94E90B089587E195E02F
S11318D00E94E90B85E295E00E94E90B8EE395E016
S11318E00E94E90B8CE095E00E94E90B089587E5DE
S11318F095E00E94E90B8CE695E00E94E90B8CE0F0
S113190095E00E94E90B089582E895E00E94E90BB6
S113191082E995E00E94E90B84EA95E00E94E90BD4
S113192085EB95E00E94E90B8CE095E00E94E90BC1
S113193008951F93CF93DF93CDB7DEB728970FB6E3
S1131940F894DEBF0FBECDBF11E021C0812F0E94ED
S1131950F4028823D9F085EC95E00E94E90B80E33A
S1131960810F0E94E50B8EEB93E00E94E90B42E0AD
S1131970BE016F5F7F4F812F0E94DD02CE01019671
S11319800E94E90B85E595E00E94E90B1F5F8091B9
S1131990CA031817D8F228960FB6F894DEBF0FBE04
S11319A0CDBFDF91CF911F9108958EEC95E00E94F9
S11319B0E90B089589EE95E00E94E90B089587E00C
S11319C096E00E94E90B089585E296E00E94E90BF7
S11319D00E941D0C089590E0FC013197E830F10558
S11319E0D8F4EF5CFF4F0C941B0D0E944D0C08952E
S11319F00E94660C08950E94770C08950E94840C3E
S1131A0008950E94990C08950E94DA0C08950E948A
S1131A10D50C08950E94E40C08958BE396E00E948F
S1131A20E90B80917206805D0E94E50B84E595E0E8
S1131A300E94E90B0895EE0FFF1F0590F491E02D2D
S1131A400994FC0188279927E89421912032E9F32D
S1131A50293010F02E30C8F32B3241F02D3239F4F6
S1131A60689404C00E944F0D820F911D2191205350
S1131A702A30C0F31EF4909581959F4F0895FB0181
S1131A80DC018D91019080190110D9F3990B08950F
S1131A90FB01DC0101900D920020E1F708957AE04A
S1131AA0979F902D879F802D910D11240895F89470
S1051AB0FFCF62
S1131AB201706173730000000077726F6E6700003B
S1131AC200014143204175746F205375636365734C
S1131AD2732100414320697320416C72656164790A
S1131AE2204175746F2100414320697320416C7257
S1131AF26561647920436C6F7365642100414320FE
S1131B025475726E6564204F66662053756363650F
S1131B12737321004143205475726E6564204F6EC5
S1131B2220537563636573732100414320416C72D2
S1131B3265616479205475726E6564204F4E21008C
S1131B42416C7265616479204D4158210044696D8C
S1131B526D657220496E637265617365642100412B
S1131B626C7265616479204D494E210044696D6D42
S1131B726572204465637265617365642100416C1A
S1131B827265616479204F464621005475726E2055
S1131B924F666620537563636573732100547572CF
S1131BA26E204F6E20537563636573732100416C1D
S1131BB27265616479204F4E2100446F6F7220690F
S1131BC27320416C726561647920436C6F73656440
S1131BD22100446F6F7220436C6F736564205375E8
S1131BE263636573732100446F6F72204F70656E77
S1131BF2656420537563636573732100446F6F7268
S1131C0220697320416C7265616479204F70656E3E
S1131C1265642100456E746572205573657249448A
S1131C223A20202000456E746572205061737377E8
S1131C326F72643A200057656C636F6D6520426170
S1131C42636B212020200041757468204661696C11
S1131C526564212020202000547279204167616943
S1131C626E2020202020202000496E76616C696459
S1131C722053656C656374656400283129414320EF
S1131C8220283229557365722020002833294C6597
S1131C92642028342944696D6D65720041432831FA
S1131CA2294F6E20202833294175746F004143283F
S1131CB232294F66662028392945786974004C65B3
S1131CC264204E6F2E2831292832292833290028EE
S1131CD23429283529202020283929457869740097
S1131CE244696D6D65722048696768657228312997
S1131CF2002830294C6F7765722028392945786984
S1131D02740053797374656D204C6F636B65642042
S1131D122020004C6F67696E204661696C65642CF3
S1131D22200A53797374656D204C6F636B6564216B
S1131D32200A004143284F004E292000464629002C
S1131D4254656D7028006329200063290020202037
S1131D522020202020283029204D6F7265004C65F8
S1131D62642000546F67676C656400476F696E672F
S1131D72204261636B210A0057656C636F6D6520B5
S1131D824261636B212000417574682044656E6969
S1131D9265642C204F6E6C792041646D696E204617
S1131DA2756E6374696F6E21200A00557365722023
S1131DB244656C6574656420537563636573736607
S1131DC2756C6C79005573657220446F6573206E6F
S1131DD26F7420457869737421004E6577205573BA
S1131DE26572205265676973746572656420537500
S1131DF26363657373210A004E65772055736572B8
S1131E022049443A20004E65772055736572205567
S1131E127365726E616D653A20000503256C750069
S1131E2220456E746572205573657249443A2831AF
S1131E327E3939290A0020456E7465722050617317
S1131E4273776F72643A0A00496E76616C69642032
S1131E52696E707574202074727920416761696EAD
S1131E62200A0043686F6F7365204F7074696F6E48
S1131E723A200A0028312920436F6E74726F6C2055
S1131E824C6564200A0028322920436F6E74726FF5
S1131E926C204143200A0028332920436F6E747258
S1131EA26F6C20446F6F72200A0028342920436F1C
S1131EB26E74726F6C2044696D6D6572200A00281D
S1131EC235292053686F77205573657273206C69C6
S1131ED27374200A002836292043726561746520D0
S1131EE24E65772055736572200A002837292044ED
S1131EF2656C6574652055736572200A0028312962
S1131F0220546F67676C65204C65642031200A0099
S1131F1228322920546F67676C65204C656420322F
S1131F22200A0028332920546F67676C65204C65AA
S1131F32642033200A0028342920546F67676C65B3
S1131F42204C65642034200A0028352920546F6708
S1131F52676C65204C65642035200A0028302920EE
S1131F624261636B200A00283129204143204175D4
S1131F72746F200A00283229204143204D616E7576
S1131F82616C205475726E204F6666200A002833F5
S1131F9229204143204D616E75616C205475726E27
S1131FA2204F6E20200A00283129204F70656E20B0
S1131FB2446F6F72204C6F636B200A002832292011
S1131FC2436C6F736520446F6F72204C6F636B2098
S1131FD20A002831292044696D6D657220557020EC
S1131FE20A002832292044696D6D657220446F7796
S1131FF26E200A002833292044696D6D6572204FD2
S11320026666200A002834292044696D6D657220B1
S11320124F6E200A005573657249443A2000456E9A
S11320227465722055736572494420546F20446567
S11320326C657465203A200A00456E7465722054FA
S11320426865204E65775573657220557365726EA7
S1132052616D653A200A00456E74657220546865A4
S1132062204E6577557365722050617373776F7272
S1132072643A200A004C6F67676564206F666620C5
S11320825375636365737321200A004C6F67696E2D
S1132092204661696C65642C205472792061676101
S10920A2696E212000001C
S9030000FC
