:100000000C9439000C9456000C9456000C94560035
:100010000C9456000C9456000C9456000C948F01CE
:100020000C9456000C9456000C9456000C94C2008C
:100030000C9456000C94AA080C9456000C9456008C
:100040000C9456000C9456000C9456000C945600D8
:100050000C9456000B0713074B0753078B07CE076B
:10006000DA07F40CF70CFA0CFD0C000D030D060D6D
:10007000090D11241FBECFE5D8E0DEBFCDBF16E0CD
:10008000A0E6B0E0E0EBFAE102C005900D92A433E7
:10009000B107D9F726E0A4E3B6E001C01D92AF385E
:1000A000B207E1F70E941B0A0C94560D0C94000055
:1000B00041E062E080E00E94220A089541E062E0AF
:1000C00080E00E94920A089540E062E080E00E9491
:1000D000920A08958230C9F0833071F1813009F0BD
:1000E00043C080913506882319F0813049F0089586
:1000F00081E08093350683E790E00E94E80B089545
:1001000084E890E00E94E80B0895809134068823EB
:1001100019F0813031F0089588E990E00E94E80BF1
:1001200008950E94640010923406109235068EEAFB
:1001300090E00E94E80B089580913406882319F01E
:10014000813069F008950E945E0081E0809334065A
:100150001092350685EC90E00E94E80B08958BED37
:1001600090E00E94E80B08950E94260C089541E05B
:1001700063E080E00E94920A08950E946A0B0E9448
:10018000B700FFCF1F920F920FB60F9211242F933B
:100190003F934F935F936F937F938F939F93AF930F
:1001A000BF93EF93FF93909136068091370698178F
:1001B00030F441E063E083E00E94920A07C09817A0
:1001C00028F040E063E083E00E94920A80913606C6
:1001D0008F5F809336068E3F10F010923606FF91A7
:1001E000EF91BF91AF919F918F917F916F915F91AF
:1001F0004F913F912F910F900FBE0F901F90189528
:1002000041E063E083E00E94220A0E946E0B0E949C
:10021000840B08958230E9F018F4813031F00895AC
:10022000833051F18430D1F10895809137068A3FAF
:1002300029F481EF90E00E94E80B08958A3F08F0CE
:100240003FC08E5C809337068EEF90E00E94E80BF3
:10025000089580913706811105C080E191E00E94E8
:10026000E80B0895882361F18253809337068DE16E
:1002700091E00E94E80B089580913706811105C036
:100280008FE291E00E94E80B08958823C9F0109254
:1002900037068CE391E00E94E80B089580913706C1
:1002A000811108C08E5C809337068EE491E00E9435
:1002B000E80B0895882321F08FE591E00E94E80B78
:1002C00008951092370608958130A9F0823031F5F3
:1002D00080913906882319F0813031F008958BE63A
:1002E00091E00E94E80B08951092390683E891E0AE
:1002F0000E94E80B089580913906882319F0813017
:1003000049F0089581E08093390688E991E00E94E0
:10031000E80B08958DEA91E00E94E80B08951F9282
:100320000F920FB60F9211242F933F934F935F9329
:100330006F937F938F939F93AF93BF93EF93FF93AD
:1003400080913806811106C041E067E083E00E9499
:10035000920A17C0813051F480913906811111C081
:1003600040E067E083E00E94920A0BC0853049F4C8
:1003700080913906813029F440E067E083E00E94F3
:10038000920A80913806883220F48F5F8093380675
:1003900002C010923806FF91EF91BF91AF919F91EB
:1003A0008F917F916F915F914F913F912F910F901E
:1003B0000FBE0F901F90189541E067E083E00E9408
:1003C000220A40E067E083E00E94920A8EB58A60CC
:1003D0008EBD83E08BBD88EE8ABD89B7806189BF01
:1003E0000E94660B08950E94880B08950F931F9337
:1003F000CF93DF938C01177012FBCC27C0F9CC0F81
:10040000CC0FCC0F11FB882780F9880F880FC82BE1
:10041000812F8170880FC82BC06AD1E0DC0F0E9449
:10042000A20B88E00E94940B813031F58C2F0E9442
:10043000B40B88E10E94940B813001F5802F0E945B
:10044000B40B88E20E94940B8130D1F40E94A20B7D
:1004500080E10E94940B8130A9F48D2F0E94B40B8F
:1004600080E40E94940B813079F480E00E94A80B14
:10047000C82F0E949F0B09C0C0E007C0C0E005C0A4
:10048000C0E003C0C0E001C0C0E08FE59DE6019779
:10049000F1F700C000008C2FDF91CF911F910F91D9
:1004A00008951F93CF93DF93D82F162F92FB8827A1
:1004B00080F9282F220F220F220F91FB882780F925
:1004C000880F880F822B9170990F982BC92FC06AC3
:1004D0000E94A20B88E00E94940B813001F58C2FC2
:1004E0000E94B40B88E10E94940B8130C1F48D2FDF
:1004F0000E94B40B88E20E94940B882381F0812F24
:100500000E94B40B88E20E94940B882341F00E9461
:100510009F0B8FE59DE60197F1F700C00000DF918A
:10052000CF911F910895EF92FF920F931F93CF9356
:100530008C017B01C0E005C0800F911F0E94510219
:10054000CF5F8C2F90E0F701E80FF91F60816111F8
:10055000F3CF800F911F01960E945102CF911F91FE
:100560000F91FF90EF900895CF92DF92EF92FF925C
:100570000F931F93CF936C018B010E94F601F8013A
:100580008083C0E00CC0CF5F8C2F90E07801E80E34
:10059000F91E8C0D9D1D0E94F601F7018083F80164
:1005A000EC0FF11D80818111EECFCF911F910F9142
:1005B000FF90EF90DF90CF900895833631F024E1E3
:1005C000829FC00111240A9602C08AE090E0413067
:1005D00019F0423029F0089501960E94B40208955E
:1005E0000A960E94B4020895833631F024E1829F76
:1005F000C00111240A9602C08AE090E00E94F60130
:10060000089524E1829FC001112460E00A960E94AF
:10061000510208951F93CF93DF93C0E0D0E007C04D
:100620001C2F8C2F0E94F402882341F02196809188
:10063000A90390E0C817D9079CF310E0812FDF9140
:10064000CF911F910895EF92FF920F931F93CF9335
:10065000DF938B017A0194E1899FE0011124682FD7
:10066000CE010A960E945102B701CE010B960E945C
:100670009302B801CE0144960E949302DF91CF917C
:100680001F910F91FF90EF90089541E064E081E0A9
:100690000E94220A41E065E081E00E94220A41E0D6
:1006A00066E081E00E94220A41E067E081E00E946A
:1006B000220A40E063E082E00E94220A40E064E017
:1006C00082E00E94220A40E065E082E00E94220A65
:1006D00040E066E082E00E94220A41E064E081E0BE
:1006E0000E94920A41E065E081E00E94920A41E0A6
:1006F00066E081E00E94920A41E067E081E00E94AA
:10070000920A41E063E082E00E94920A41E064E0E4
:1007100082E00E94920A41E065E082E00E94920A33
:1007200041E066E082E00E94920A0895CF9340E0A3
:1007300064E081E00E94920A41E065E081E00E946D
:10074000920A41E066E081E00E94920A41E067E09F
:1007500081E00E94920A63E082E00E94380B8111DE
:1007600008C063E082E00E94380B8823D1F3C1E324
:100770002BC064E082E00E94380B811108C064E065
:1007800082E00E94380B8823D1F3C4E31DC065E0EA
:1007900082E00E94380B811108C065E082E00E946F
:1007A000380B8823D1F3C7E30FC066E082E00E94D4
:1007B000380B811108C066E082E00E94380B882364
:1007C000D1F3CAE201C0C0E041E064E081E00E94F0
:1007D000920A40E065E081E00E94920A41E066E012
:1007E00081E00E94920A41E067E081E00E94920A63
:1007F00063E082E00E94380B811108C063E082E070
:100800000E94380B8823D1F3C2E329C064E082E060
:100810000E94380B811108C064E082E00E94380B0E
:100820008823D1F3C5E31BC065E082E00E94380B4A
:10083000811108C065E082E00E94380B8823D1F363
:10084000C8E30DC066E082E00E94380B811107C04A
:1008500066E082E00E94380B8823D1F3C0E341E0D8
:1008600064E081E00E94920A41E065E081E00E943C
:10087000920A40E066E081E00E94920A41E067E06F
:1008800081E00E94920A63E082E00E94380B8111AD
:1008900008C063E082E00E94380B8823D1F3C3E3F1
:1008A00029C064E082E00E94380B811108C064E036
:1008B00082E00E94380B8823D1F3C6E31BC065E0B9
:1008C00082E00E94380B811108C065E082E00E943E
:1008D000380B8823D1F3C9E30DC066E082E00E94A3
:1008E000380B811107C066E082E00E94380B882334
:1008F000D1F3C3E241E064E081E00E94920A41E06A
:1009000065E081E00E94920A41E066E081E00E9499
:10091000920A40E067E081E00E94920A63E082E090
:100920000E94380B811108C063E082E00E94380BFE
:100930008823D1F3C1E429C064E082E00E94380B2F
:10094000811108C064E082E00E94380B8823D1F353
:10095000C2E41BC065E082E00E94380B811108C030
:1009600065E082E00E94380B8823D1F3C3E40DC018
:1009700066E082E00E94380B811107C066E082E0E9
:100980000E94380B8823D1F3C4E48C2FCF910895B3
:1009900041E063E081E00E94920A8FED9EE20197C0
:1009A000F1F700C0000040E063E081E00E94920A9D
:1009B0008FED9EE20197F1F700C000000895CF93FC
:1009C000C82F40E061E081E00E94920A40E062E0CE
:1009D00081E00E94920AC4FB442740F964E080E071
:1009E0000E94920AC5FB442740F965E080E00E941E
:1009F000920AC6FB442740F966E080E00E94920A12
:100A00004C2F441F4427441F67E080E00E94920A55
:100A10000E94C8048FE19EE40197F1F700C0000036
:100A20004C2F417064E080E00E94920AC1FB442791
:100A300040F965E080E00E94920AC2FB442740F939
:100A400066E080E00E94920AC3FB442740F967E019
:100A500080E00E94920A0E94C8048FE19EE4019700
:100A6000F1F700C00000CF91089541E061E081E01E
:100A70000E94220A41E062E081E00E94220A41E0F5
:100A800063E081E00E94220A41E064E080E00E948D
:100A9000220A41E065E080E00E94220A41E066E02F
:100AA00080E00E94220A41E067E080E00E94220A82
:100AB0002FE785EB91E0215080409040E1F700C0A6
:100AC000000083E30E94DF048FE39FE10197F1F7C9
:100AD00000C0000082E30E94DF048FE39FE10197E2
:100AE000F1F700C0000088E20E94DF048FE39FE17D
:100AF0000197F1F700C000008FE00E94DF048FE350
:100B00009FE10197F1F700C0000086E00E94DF043A
:100B10008FE39FE10197F1F700C0000081E00E94A0
:100B2000DF048FE39FE10197F1F700C0000010920E
:100B30003F060895CF93DF93C82FD62F862F90E4DA
:100B4000C99F800D112480680E94DF04C11105C077
:100B5000D03118F4D0933F0607C0C13029F4D0310A
:100B600018F4D05FD0933F06DF91CF91089581E0D4
:100B70000E94DF048FE39FE10197F1F700C00000BE
:100B800010923F060895CF93C82F811122C0809103
:100B90003F068F3020F48F5F80933F061AC08F305E
:100BA00041F48F5F80933F0660E081E00E949A05E8
:100BB00010C090EF980F9F3020F48F5F80933F0616
:100BC00008C08F3131F410923F0660E080E00E944F
:100BD0009A05C130E9F480913F069FEF980F9F304E
:100BE00018F490933F0614C0803129F46FE080E040
:100BF0000E949A050DC02FEE280F2F3018F4909305
:100C00003F0606C0811104C06FE081E00E949A0592
:100C1000CF910895CF9390EE980F9E3508F056C06F
:100C2000C82F41E061E081E00E94920A40E062E06A
:100C300081E00E94920AC4FB442740F964E080E00E
:100C40000E94920AC5FB442740F965E080E00E94BB
:100C5000920AC6FB442740F966E080E00E94920AAF
:100C60004C2F441F4427441F67E080E00E94920AF3
:100C70000E94C8048FE19EE40197F1F700C00000D4
:100C80004C2F417064E080E00E94920AC1FB44272F
:100C900040F965E080E00E94920AC2FB442740F9D7
:100CA00066E080E00E94920AC3FB442740F967E0B7
:100CB00080E00E94920A0E94C8048FE19EE401979E
:100CC000F1F700C0000080E00E94C305CF910895B5
:100CD000CF93C82F81110BC080913F068F3138F41C
:100CE00084E10E94DF048C2F0E94C30508C0C1303C
:100CF00031F480E10E94DF048C2F0E94C305CF9164
:100D0000089581E00E9468068FE39FE10197F1F763
:100D100000C0000080E20E940A068FE39FE1019775
:100D2000F1F700C0000081E00E9468068FE39FE1B8
:100D30000197F1F700C0000008950F931F93CF9320
:100D40008C01C0E009C00E940A06CF5F8FE39CE9D6
:100D50000197F1F700C00000F801EC0FF11D808150
:100D60008111F1CF8FE19EE40197F1F700C00000FF
:100D7000CF911F910F9108950E94B70585EC91E0E6
:100D80000E949D0608950E94B70586ED91E00E949D
:100D90009D0608950E94B70587EE91E00E949D068A
:100DA00008950E94B70588EF91E00E949D0689E0B2
:100DB00092E00E949D0608950E94B7058AE192E0A4
:100DC0000E949D068BE292E00E949D0608950E947B
:100DD000B7058CE392E00E949D0689E092E00E94B4
:100DE0009D0608950E94B70588EF91E00E949D0638
:100DF00081E992E00E949D060895E09161008E2FA6
:100E000090E0FC013197E730F10508F0F5C0E65DB0
:100E1000FF4F0C941A0D0E94BC06809161008F5FF9
:100E20008093610008950E94960380933E06882374
:100E300009F4E2C090ED980F9A3078F40E940A0607
:100E400080913D06E82FF0E0EC5AF94F90913E0674
:100E500090838F5F80933D061BC08A3289F4909106
:100E60003D06992369F00E94810680913D06E82F96
:100E7000F0E0EC5AF94F1082815080933D0608C093
:100E80008154843028F4809161008F5F80936100E9
:100E900010923E0608950E94C306809161008F5F04
:100EA0008093610008950E94960380933E068823F4
:100EB00009F4A2C090ED980F9A3078F40E940A06C7
:100EC00080913C06E82FF0E0EC59F94F90913E06F6
:100ED00090838F5F80933C061BC08A3289F4909187
:100EE0003C06992369F00E94810680913C06E82F18
:100EF000F0E0EC59F94F1082815080933C0608C015
:100F00008154843028F4809161008F5F8093610068
:100F100010923E06089584E596E00E94200D80938D
:100F200053060E94F402882339F041E06CE676E033
:100F3000809153060E94DD026CE676E084E696E03E
:100F40000E943E0D892B99F442E06CE576E0809199
:100F500053060E94DD020E94CA068CE596E00E94BC
:100F60009D06809161008F5F8093610008950E94CB
:100F7000D10680913B068F5F80933B069091AA0338
:100F8000891308C082EA92E00E94E80B0E94F206F0
:100F90000E94BD0081E08093610008952FEF83EDF2
:100FA00090E3215080409040E1F700C000000E9493
:100FB000DC0608950E94960380933E06811104C0CA
:100FC000909160009130C1F08053853028F4809377
:100FD0003A0610923E0608950E94E7062FEF83ED31
:100FE00090E3215080409040E1F700C000008091E4
:100FF0006100815080936100089541E062E082E0E9
:101000000E94220A41E067E082E00E94220A41E059
:1010100063E083E00E94220A41E065E083E00E94F1
:10102000220A41E064E083E00E94220A41E060E09D
:1010300080E00E94220A089540E062E082E00E947F
:10104000920A089540E067E082E00E94920A0895C3
:1010500040E063E083E00E94920A089540E065E08A
:1010600083E00E94920A089540E064E083E00E94D9
:10107000920A089542E062E082E00E94920A089596
:1010800042E067E082E00E94920A089542E063E055
:1010900083E00E94920A089542E065E083E00E94A6
:1010A000920A089542E064E083E00E94920A089563
:1010B000CF93833099F028F4813041F0823051F0A1
:1010C00019C0843079F0853089F014C00E943A0844
:1010D000C0E011C00E944008C1E00DC00E94460857
:1010E000C2E009C00E944C08C3E005C00E9452083B
:1010F000C4E001C0C0E08DEE92E00E94E80B8C2FAE
:1011000090E00E94E40B82EF92E00E94E80BCF9106
:1011100008950E94FD070E9422080E9428080E944C
:101120002E080E9434080E941C080E9435050E9467
:1011300045030E9458000E94DC010E9400010E94A9
:1011400061010E94F3010E94BF0B0E94BB0B0E9431
:10115000660B08951F920F920FB60F9211242F93D2
:101160003F934F935F936F937F938F939F93AF932F
:10117000BF93EF93FF9386E796E00E94FF0B81E019
:1011800080935106FF91EF91BF91AF919F918F9105
:101190007F916F915F914F913F912F910F900FBE73
:1011A0000F901F901895809172008F5F809372004E
:1011B000089580915106813009F03CC1109251068A
:1011C000809172008330F9F028F4813061F0823030
:1011D00079F00895853009F488C008F45EC086303F
:1011E00009F4F6C008950E941C0C0E94D3080895CB
:1011F00066E776E089E496E00E94470D0E94210CA4
:101200000E94D308089566E776E080E496E00E94A5
:10121000470D89E496E00E94200D809348060E94C5
:10122000F402882371F042E06AE670E0809148069B
:101230000E94DD0241E062E670E0809148060E9473
:10124000DD0260E476E082E690E00E943E0D892BAC
:1012500089F487E093E00E94E80B8AE690E00E9420
:10126000E80B84E395E00E94E80B0E942B0C0E949F
:10127000D3080895809152068F5F80935206833081
:1012800030F082EA92E00E94E80B0E94BD000E94CA
:101290000C0D81E080937200089586E796E00E942D
:1012A000200D809374069AEF980F933010F08330DE
:1012B00049F490914806933629F086E193E00E9424
:1012C000E80B08950E94EA0C80917406853031F095
:1012D000809172008F5F809372000895883009F0CA
:1012E000A9C082E080937200089586E796E00E948C
:1012F000200D80937E06909174062AEF290F2230EC
:1013000098F0893038F00E94260C809174060E9473
:10131000EA0C0895811108C00E942B0C8091720084
:1013200081508093720008959330F1F028F4913049
:1013300059F0923089F00895963039F1973099F14B
:10134000943009F077C019C0863018F40E9458080C
:1013500008950E94260C0895843018F40E946A00B3
:1013600008950E94260C0895833020F490E00E9496
:10137000640108950E94260C0895833018F40E9499
:101380000A0108950E94260C089566E776E08FE72B
:1013900096E00E94470D0E94DE0C809172008F5FE4
:1013A0008093720008950E94F402882349F080918E
:1013B0007E060E9401038AE393E00E94E80B04C0CA
:1013C00084E593E00E94E80B81E080937200089529
:1013D00066E776E087E896E00E94470D0E940A03E0
:1013E00080937506882331F047E856E06FE776E092
:1013F0000E94230389E693E00E94E80B87E893E0CC
:101400000E94E80B80917506805D0E94E40B84E3E6
:1014100095E00E94E80B85E993E00E94E80B8FE7D6
:1014200096E00E94E80B84E395E00E94E80B81E0DF
:101430008093720008950E9489080E94D9080E9432
:10144000FD06FBCF4130A1F5813089F028F08230D4
:10145000C9F0833011F108952AB381E090E002C011
:10146000880F991F6A95E2F7822B8ABB089527B3EC
:1014700081E090E002C0880F991F6A95E2F7822B05
:1014800087BB089524B381E090E002C0880F991FC4
:101490006A95E2F7822B84BB089521B381E090E046
:1014A00002C0880F991F6A95E2F7822B81BB0895CD
:1014B000411137C0813091F028F08230D9F083306B
:1014C00029F108952AB381E090E002C0880F991FA6
:1014D0006A95E2F7809582238ABB089527B381E05D
:1014E00090E002C0880F991F6A95E2F780958223E9
:1014F00087BB089524B381E090E002C0880F991F54
:101500006A95E2F78095822384BB089521B381E038
:1015100090E002C0880F991F6A95E2F780958223B8
:1015200081BB08954130A1F5813089F028F08230E7
:10153000C9F0833011F108952BB381E090E002C02F
:10154000880F991F6A95E2F7822B8BBB089528B309
:1015500081E090E002C0880F991F6A95E2F7822B24
:1015600088BB089525B381E090E002C0880F991FE1
:101570006A95E2F7822B85BB089522B381E090E063
:1015800002C0880F991F6A95E2F7822B82BB0895EB
:10159000411138C0813091F028F08230D9F0833089
:1015A00029F108952BB381E090E002C0880F991FC4
:1015B0006A95E2F7809582238BBB089528B381E07A
:1015C00090E002C0880F991F6A95E2F78095822308
:1015D00088BB089525B381E090E002C0880F991F71
:1015E0006A95E2F78095822385BB089522B381E056
:1015F00090E002C0880F991F6A95E2F780958223D8
:1016000082BB0895423099F5813089F028F082300C
:10161000C9F0833011F108952BB381E090E002C04E
:10162000880F991F6A95E2F782278BBB089528B32C
:1016300081E090E002C0880F991F6A95E2F7822747
:1016400088BB089525B381E090E002C0880F991F00
:101650006A95E2F7822785BB089522B381E090E086
:1016600002C0880F991F6A95E2F7822782BB08950E
:10167000813079F028F08230A9F08330E1F024C085
:1016800089B390E002C0959587956A95E2F78170DD
:10169000089586B390E002C0959587956A95E2F724
:1016A0008170089583B390E002C0959587956A95FF
:1016B000E2F78170089580B390E002C09595879518
:1016C0006A95E2F78170089580E008958FB7806889
:1016D0008FBF08958FB78F778FBF089583B78F7BA4
:1016E00083BF83B7877F83BF83B78B7F83BF83B776
:1016F0008D7F83BF83B7816083BF83B78F7D83BFB7
:1017000083B78F7E83BF089589B7816089BF0895AD
:101710008AE080B981B1816081B981B18D7F81B961
:1017200086B7846086BF089521B190E0287F30E0BD
:101730008217930711F481E0089580E0089584E909
:1017400086BF089584EA86BF06B607FEFDCF0895DA
:10175000813019F486B7806486BF84E886BF06B6F8
:1017600007FEFDCF83B1089583B984E886BF06B62E
:1017700007FEFDCF08958AB180688AB908958AB1BD
:101780008B7F8AB980B5846080BD80B5826080BD62
:1017900080B58F7B80BD80B5806880BD80B58F7D32
:1017A00080BD80B58F7E80BD80B5877F80BD10BC39
:1017B00087E689B98AB180618AB98AB188608AB9B5
:1017C0008AB180688AB908955D9BFECF8CB908956F
:1017D0000F931F93CF938C01C0E003C00E94E40BD2
:1017E000CF5FF801EC0FF11D80818111F7CFCF9110
:1017F0001F910F9108955F9BFECF8CB10895EF92DA
:10180000FF921F93CF93DF937C0110E0E701C10F9C
:10181000D11D0E94FB0B88838D3009F418828881CA
:101820008A3011F4188202C01F5FF0CFDF91CF9190
:101830001F91FF90EF9008958FEA93E00E94E80BCC
:10184000089585EC93E00E94E80B089587ED93E0FE
:101850000E94E80B089582EF93E00E94E80B83E07A
:1018600094E00E94E80B85E194E00E94E80B86E298
:1018700094E00E94E80B89E394E00E94E80B8EE478
:1018800094E00E94E80B84E694E00E94E80B8AE76B
:1018900094E00E94E80B08958CE894E00E94E80B25
:1018A0008FE994E00E94E80B82EB94E00E94E80B41
:1018B00085EC94E00E94E80B88ED94E00E94E80B30
:1018C0008BEE94E00E94E80B089586EF94E00E946E
:1018D000E80B84E095E00E94E80B8DE195E00E9422
:1018E000E80B8BEE94E00E94E80B089586E395E008
:1018F0000E94E80B8BE495E00E94E80B8BEE94E0ED
:101900000E94E80B089581E695E00E94E80B81E7CC
:1019100095E00E94E80B83E895E00E94E80B84E9DB
:1019200095E00E94E80B8BEE94E00E94E80B08958E
:101930001F93CF93DF93CDB7DEB728970FB6F894F8
:10194000DEBF0FBECDBF11E021C0812F0E94F40287
:101950008823D9F084EA95E00E94E80B80E3810FA8
:101960000E94E40B8DE993E00E94E80B42E0BE0187
:101970006F5F7F4F812F0E94DD02CE0101960E9492
:10198000E80B84E395E00E94E80B1F5F8091A903B8
:101990001817D8F228960FB6F894DEBF0FBECDBF49
:1019A000DF91CF911F9108958DEA95E00E94E80B99
:1019B000089588EC95E00E94E80B089586EE95E086
:1019C0000E94E80B089584E096E00E94E80B0E94D4
:1019D0001C0C089590E0FC013197E830F105D8F433
:1019E000EF5CFF4F0C941A0D0E944C0C08950E945E
:1019F000650C08950E94760C08950E94830C08954A
:101A00000E94980C08950E94D90C08950E94D40C4D
:101A100008950E94E30C08958AE196E00E94E80B85
:101A200080915206805D0E94E40B83E395E00E9462
:101A3000E80B0895EE0FFF1F0590F491E02D099437
:101A4000FC0188279927E89421912032E9F3293075
:101A500010F02E30C8F32B3241F02D3239F4689457
:101A600004C00E944E0D820F911D219120532A30F7
:101A7000C0F31EF4909581959F4F0895FB01DC0102
:101A80008D91019080190110D9F3990B0895FB01F4
:101A9000DC0101900D920020E1F708957AE0979F14
:101AA000902D879F802D910D11240895F894FFCFDC
:101AB0000101706173730000000077726F6E670040
:101AC0000000014143204175746F205375636365C5
:101AD00073732100414320697320416C7265616416
:101AE00079204175746F2100414320697320416C56
:101AF000726561647920436C6F73656421004143B2
:101B0000205475726E6564204F666620537563635A
:101B100065737321004143205475726E6564204FD4
:101B20006E20537563636573732100414320416CDC
:101B30007265616479205475726E6564204F4E2120
:101B400000416C7265616479204D415821004469FF
:101B50006D6D657220496E63726561736564210005
:101B6000416C7265616479204D494E210044696D74
:101B70006D6572204465637265617365642100411F
:101B80006C7265616479204F464621005475726E0F
:101B9000204F666620537563636573732100547527
:101BA000726E204F6E20537563636573732100411D
:101BB0006C7265616479204F4E2100446F6F722012
:101BC000697320416C726561647920436C6F736541
:101BD000642100446F6F7220436C6F7365642053FF
:101BE0007563636573732100446F6F72204F706576
:101BF0006E656420537563636573732100446F6F72
:101C00007220697320416C7265616479204F706540
:101C10006E65642100456E74657220557365724966
:101C2000443A20202000456E746572205061737321
:101C3000776F72643A200057656C636F6D65204260
:101C400061636B2120202000417574682046616922
:101C50006C65642120202020005472792041676146
:101C6000696E202020202020200028312941432097
:101C700020283229557365722020002833294C65AD
:101C8000642028342944696D6D657200496E76615F
:101C90006C69642053656C6563746564004C6564AD
:101CA000204E6F2E28312928322928332900283444
:101CB00029283529202020283929457869740044AD
:101CC000696D6D6572204869676865722831290001
:101CD0002830294C6F776572202839294578697436
:101CE0000053797374656D204C6F636B65642020BD
:101CF00020004C6F67696E204661696C65642C201A
:101D00000A53797374656D204C6F636B6564212091
:101D10000A004143284F004E29200046462900541E
:101D2000656D702800632920006329002020202091
:101D300020202020283029204D6F7265004C6564DA
:101D40002000546F67676C656400476F696E672099
:101D50004261636B210A0057656C636F6D652042B9
:101D600061636B212000417574682044656E69656C
:101D7000642C204F6E6C792041646D696E2046752D
:101D80006E6374696F6E21200A005573657220447A
:101D9000656C6574656420537563636573736675FC
:101DA0006C6C79005573657220446F6573206E6F9B
:101DB0007420457869737421004E657720557365EA
:101DC0007220526567697374657265642053756328
:101DD00063657373210A004E657720557365722021
:101DE00049443A20004E657720557365722055733B
:101DF00065726E616D653A20000503256C750020E3
:101E0000456E746572205573657249443A28317E77
:101E10003939290A0020456E746572205061737348
:101E2000776F72643A0A00496E76616C6964206962
:101E30006E707574202074727920416761696E201C
:101E40000A0043686F6F7365204F7074696F6E3A54
:101E5000200A0028312920436F6E74726F6C204C69
:101E60006564200A0028322920436F6E74726F6CFB
:101E7000204143200A0028332920436F6E74726F7B
:101E80006C20446F6F72200A0028342920436F6E43
:101E900074726F6C2044696D6D6572200A0028357C
:101EA000292053686F77205573657273206C6973AE
:101EB00074200A0028362920437265617465204E1B
:101EC00065772055736572200A00283729204465FC
:101ED0006C6574652055736572200A0028312920CD
:101EE000546F67676C65204C65642031200A0028B8
:101EF000322920546F67676C65204C65642032205E
:101F00000A0028332920546F67676C65204C65648C
:101F10002033200A0028342920546F67676C65201D
:101F20004C65642034200A0028352920546F6767E7
:101F30006C65204C65642035200A00283029204239
:101F400061636B200A0028312920414320417574C8
:101F50006F200A00283229204143204D616E7561AF
:101F60006C205475726E204F6666200A0028332953
:101F7000204143204D616E75616C205475726E2056
:101F80004F6E20200A00283129204F70656E2044B2
:101F90006F6F72204C6F636B200A00283229204338
:101FA0006C6F736520446F6F72204C6F636B200AF7
:101FB000002831292044696D6D6572205570200A12
:101FC000002832292044696D6D657220446F776E58
:101FD000200A002833292044696D6D6572204F6600
:101FE00066200A002834292044696D6D6572204FEF
:101FF0006E200A005573657249443A2000456E749C
:1020000065722055736572494420546F2044656C95
:10201000657465203A200A00456E74657220546824
:1020200065204E65775573657220557365726E61D4
:102030006D653A200A00456E74657220546865200B
:102040004E6577557365722050617373776F726454
:102050003A200A004C6F67676564206F66662053FC
:1020600075636365737321200A004C6F67696E2086
:102070004661696C65642C205472792061676169DE
:042080006E212000AD
:00000001FF
